{
  "_format": "hh-sol-artifact-1",
  "contractName": "PKPHelper",
  "sourceName": "contracts/PKPHelper.sol",
  "abi": [
    {
      "inputs": [
        {
          "internalType": "address",
          "name": "_pkpNft",
          "type": "address"
        },
        {
          "internalType": "address",
          "name": "_pkpPermissions",
          "type": "address"
        }
      ],
      "stateMutability": "nonpayable",
      "type": "constructor"
    },
    {
      "anonymous": false,
      "inputs": [
        {
          "indexed": true,
          "internalType": "address",
          "name": "previousOwner",
          "type": "address"
        },
        {
          "indexed": true,
          "internalType": "address",
          "name": "newOwner",
          "type": "address"
        }
      ],
      "name": "OwnershipTransferred",
      "type": "event"
    },
    {
      "inputs": [
        {
          "internalType": "uint256",
          "name": "keyType",
          "type": "uint256"
        },
        {
          "internalType": "bytes[]",
          "name": "permittedIpfsCIDs",
          "type": "bytes[]"
        },
        {
          "internalType": "address[]",
          "name": "permittedAddresses",
          "type": "address[]"
        },
        {
          "internalType": "uint256[]",
          "name": "permittedAuthMethodTypes",
          "type": "uint256[]"
        },
        {
          "internalType": "bytes[]",
          "name": "permittedAuthMethodIds",
          "type": "bytes[]"
        },
        {
          "internalType": "bytes[]",
          "name": "permittedAuthMethodPubkeys",
          "type": "bytes[]"
        },
        {
          "internalType": "bool",
          "name": "addPkpEthAddressAsPermittedAddress",
          "type": "bool"
        },
        {
          "internalType": "bool",
          "name": "sendPkpToItself",
          "type": "bool"
        }
      ],
      "name": "mintNextAndAddAuthMethods",
      "outputs": [
        {
          "internalType": "uint256",
          "name": "",
          "type": "uint256"
        }
      ],
      "stateMutability": "payable",
      "type": "function"
    },
    {
      "inputs": [
        {
          "internalType": "address",
          "name": "operator",
          "type": "address"
        },
        {
          "internalType": "address",
          "name": "from",
          "type": "address"
        },
        {
          "internalType": "uint256",
          "name": "tokenId",
          "type": "uint256"
        },
        {
          "internalType": "bytes",
          "name": "data",
          "type": "bytes"
        }
      ],
      "name": "onERC721Received",
      "outputs": [
        {
          "internalType": "bytes4",
          "name": "",
          "type": "bytes4"
        }
      ],
      "stateMutability": "nonpayable",
      "type": "function"
    },
    {
      "inputs": [],
      "name": "owner",
      "outputs": [
        {
          "internalType": "address",
          "name": "",
          "type": "address"
        }
      ],
      "stateMutability": "view",
      "type": "function"
    },
    {
      "inputs": [],
      "name": "pkpNFT",
      "outputs": [
        {
          "internalType": "contract PKPNFT",
          "name": "",
          "type": "address"
        }
      ],
      "stateMutability": "view",
      "type": "function"
    },
    {
      "inputs": [],
      "name": "pkpPermissions",
      "outputs": [
        {
          "internalType": "contract PKPPermissions",
          "name": "",
          "type": "address"
        }
      ],
      "stateMutability": "view",
      "type": "function"
    },
    {
      "inputs": [],
      "name": "renounceOwnership",
      "outputs": [],
      "stateMutability": "nonpayable",
      "type": "function"
    },
    {
      "inputs": [
        {
          "internalType": "address",
          "name": "newPkpNftAddress",
          "type": "address"
        }
      ],
      "name": "setPkpNftAddress",
      "outputs": [],
      "stateMutability": "nonpayable",
      "type": "function"
    },
    {
      "inputs": [
        {
          "internalType": "address",
          "name": "newPkpPermissionsAddress",
          "type": "address"
        }
      ],
      "name": "setPkpPermissionsAddress",
      "outputs": [],
      "stateMutability": "nonpayable",
      "type": "function"
    },
    {
      "inputs": [
        {
          "internalType": "address",
          "name": "newOwner",
          "type": "address"
        }
      ],
      "name": "transferOwnership",
      "outputs": [],
      "stateMutability": "nonpayable",
      "type": "function"
    }
  ],
  "bytecode": "0x60806040523480156200001157600080fd5b5060405162001aa138038062001aa18339818101604052810190620000379190620001c4565b620000576200004b620000e160201b60201c565b620000e960201b60201c565b81600160006101000a81548173ffffffffffffffffffffffffffffffffffffffff021916908373ffffffffffffffffffffffffffffffffffffffff16021790555080600260006101000a81548173ffffffffffffffffffffffffffffffffffffffff021916908373ffffffffffffffffffffffffffffffffffffffff16021790555050506200025e565b600033905090565b60008060009054906101000a900473ffffffffffffffffffffffffffffffffffffffff169050816000806101000a81548173ffffffffffffffffffffffffffffffffffffffff021916908373ffffffffffffffffffffffffffffffffffffffff1602179055508173ffffffffffffffffffffffffffffffffffffffff168173ffffffffffffffffffffffffffffffffffffffff167f8be0079c531659141344cd1fd0a4f28419497f9722a3daafe3b4186f6b6457e060405160405180910390a35050565b600081519050620001be8162000244565b92915050565b60008060408385031215620001de57620001dd6200023f565b5b6000620001ee85828601620001ad565b92505060206200020185828601620001ad565b9150509250929050565b600062000218826200021f565b9050919050565b600073ffffffffffffffffffffffffffffffffffffffff82169050919050565b600080fd5b6200024f816200020b565b81146200025b57600080fd5b50565b611833806200026e6000396000f3fe6080604052600436106100865760003560e01c80637a4b6e8e116100595780637a4b6e8e146101315780638da5cb5b1461016157806397016f3f1461018c578063f2fde38b146101b7578063ffa2e953146101e057610086565b8063150b7a021461008b578063176354fd146100c85780631ea89a22146100f1578063715018a61461011a575b600080fd5b34801561009757600080fd5b506100b260048036038101906100ad9190610f08565b61020b565b6040516100bf919061123e565b60405180910390f35b3480156100d457600080fd5b506100ef60048036038101906100ea9190610eae565b6102b0565b005b3480156100fd57600080fd5b5061011860048036038101906101139190610eae565b6102fc565b005b34801561012657600080fd5b5061012f610348565b005b61014b60048036038101906101469190610fbd565b61035c565b60405161015891906112ef565b60405180910390f35b34801561016d57600080fd5b50610176610944565b60405161018391906111ec565b60405180910390f35b34801561019857600080fd5b506101a161096d565b6040516101ae9190611274565b60405180910390f35b3480156101c357600080fd5b506101de60048036038101906101d99190610eae565b610993565b005b3480156101ec57600080fd5b506101f5610a17565b6040516102029190611259565b60405180910390f35b6000600160009054906101000a900473ffffffffffffffffffffffffffffffffffffffff1673ffffffffffffffffffffffffffffffffffffffff163373ffffffffffffffffffffffffffffffffffffffff161461029d576040517f08c379a0000000000000000000000000000000000000000000000000000000008152600401610294906112cf565b60405180910390fd5b63150b7a0260e01b905095945050505050565b6102b8610a3d565b80600160006101000a81548173ffffffffffffffffffffffffffffffffffffffff021916908373ffffffffffffffffffffffffffffffffffffffff16021790555050565b610304610a3d565b80600260006101000a81548173ffffffffffffffffffffffffffffffffffffffff021916908373ffffffffffffffffffffffffffffffffffffffff16021790555050565b610350610a3d565b61035a6000610abb565b565b600080600160009054906101000a900473ffffffffffffffffffffffffffffffffffffffff1673ffffffffffffffffffffffffffffffffffffffff16635d228b16348c6040518363ffffffff1660e01b81526004016103bb91906112ef565b6020604051808303818588803b1580156103d457600080fd5b505af11580156103e8573d6000803e3d6000fd5b50505050506040513d601f19601f8201168201806040525081019061040d9190610f90565b905060008951146104e25760005b89518110156104e057600260009054906101000a900473ffffffffffffffffffffffffffffffffffffffff1673ffffffffffffffffffffffffffffffffffffffff166354b06ae3838c848151811061047657610475611664565b5b60200260200101516040518363ffffffff1660e01b815260040161049b929190611333565b600060405180830381600087803b1580156104b557600080fd5b505af11580156104c9573d6000803e3d6000fd5b5050505080806104d8906115ec565b91505061041b565b505b60008851146105b55760005b88518110156105b357600260009054906101000a900473ffffffffffffffffffffffffffffffffffffffff1673ffffffffffffffffffffffffffffffffffffffff16637acf14cc838b848151811061054957610548611664565b5b60200260200101516040518363ffffffff1660e01b815260040161056e92919061130a565b600060405180830381600087803b15801561058857600080fd5b505af115801561059c573d6000803e3d6000fd5b5050505080806105ab906115ec565b9150506104ee565b505b60008751146106c05760005b87518110156106be57600260009054906101000a900473ffffffffffffffffffffffffffffffffffffffff1673ffffffffffffffffffffffffffffffffffffffff166316ff923d838a848151811061061c5761061b611664565b5b60200260200101518a858151811061063757610636611664565b5b60200260200101518a868151811061065257610651611664565b5b60200260200101516040518563ffffffff1660e01b81526004016106799493929190611363565b600060405180830381600087803b15801561069357600080fd5b505af11580156106a7573d6000803e3d6000fd5b5050505080806106b6906115ec565b9150506105c1565b505b6000600260009054906101000a900473ffffffffffffffffffffffffffffffffffffffff1673ffffffffffffffffffffffffffffffffffffffff1663bd4986a0836040518263ffffffff1660e01b815260040161071d91906112ef565b60206040518083038186803b15801561073557600080fd5b505afa158015610749573d6000803e3d6000fd5b505050506040513d601f19601f8201168201806040525081019061076d9190610edb565b9050841561080557600260009054906101000a900473ffffffffffffffffffffffffffffffffffffffff1673ffffffffffffffffffffffffffffffffffffffff16637acf14cc83836040518363ffffffff1660e01b81526004016107d292919061130a565b600060405180830381600087803b1580156107ec57600080fd5b505af1158015610800573d6000803e3d6000fd5b505050505b83156108a157600160009054906101000a900473ffffffffffffffffffffffffffffffffffffffff1673ffffffffffffffffffffffffffffffffffffffff166342842e0e3083856040518463ffffffff1660e01b815260040161086a93929190611207565b600060405180830381600087803b15801561088457600080fd5b505af1158015610898573d6000803e3d6000fd5b50505050610933565b600160009054906101000a900473ffffffffffffffffffffffffffffffffffffffff1673ffffffffffffffffffffffffffffffffffffffff166342842e0e3033856040518463ffffffff1660e01b815260040161090093929190611207565b600060405180830381600087803b15801561091a57600080fd5b505af115801561092e573d6000803e3d6000fd5b505050505b819250505098975050505050505050565b60008060009054906101000a900473ffffffffffffffffffffffffffffffffffffffff16905090565b600260009054906101000a900473ffffffffffffffffffffffffffffffffffffffff1681565b61099b610a3d565b600073ffffffffffffffffffffffffffffffffffffffff168173ffffffffffffffffffffffffffffffffffffffff161415610a0b576040517f08c379a0000000000000000000000000000000000000000000000000000000008152600401610a029061128f565b60405180910390fd5b610a1481610abb565b50565b600160009054906101000a900473ffffffffffffffffffffffffffffffffffffffff1681565b610a45610b7f565b73ffffffffffffffffffffffffffffffffffffffff16610a63610944565b73ffffffffffffffffffffffffffffffffffffffff1614610ab9576040517f08c379a0000000000000000000000000000000000000000000000000000000008152600401610ab0906112af565b60405180910390fd5b565b60008060009054906101000a900473ffffffffffffffffffffffffffffffffffffffff169050816000806101000a81548173ffffffffffffffffffffffffffffffffffffffff021916908373ffffffffffffffffffffffffffffffffffffffff1602179055508173ffffffffffffffffffffffffffffffffffffffff168173ffffffffffffffffffffffffffffffffffffffff167f8be0079c531659141344cd1fd0a4f28419497f9722a3daafe3b4186f6b6457e060405160405180910390a35050565b600033905090565b6000610b9a610b95846113db565b6113b6565b90508083825260208201905082856020860282011115610bbd57610bbc6116cc565b5b60005b85811015610bed5781610bd38882610d37565b845260208401935060208301925050600181019050610bc0565b5050509392505050565b6000610c0a610c0584611407565b6113b6565b90508083825260208201905082856020860282011115610c2d57610c2c6116cc565b5b60005b85811015610c7b57813567ffffffffffffffff811115610c5357610c526116c7565b5b808601610c608982610e56565b85526020850194506020840193505050600181019050610c30565b5050509392505050565b6000610c98610c9384611433565b6113b6565b90508083825260208201905082856020860282011115610cbb57610cba6116cc565b5b60005b85811015610ceb5781610cd18882610e84565b845260208401935060208301925050600181019050610cbe565b5050509392505050565b6000610d08610d038461145f565b6113b6565b905082815260208101848484011115610d2457610d236116d1565b5b610d2f848285611579565b509392505050565b600081359050610d46816117b8565b92915050565b600081519050610d5b816117b8565b92915050565b600082601f830112610d7657610d756116c7565b5b8135610d86848260208601610b87565b91505092915050565b600082601f830112610da457610da36116c7565b5b8135610db4848260208601610bf7565b91505092915050565b600082601f830112610dd257610dd16116c7565b5b8135610de2848260208601610c85565b91505092915050565b600081359050610dfa816117cf565b92915050565b60008083601f840112610e1657610e156116c7565b5b8235905067ffffffffffffffff811115610e3357610e326116c2565b5b602083019150836001820283011115610e4f57610e4e6116cc565b5b9250929050565b600082601f830112610e6b57610e6a6116c7565b5b8135610e7b848260208601610cf5565b91505092915050565b600081359050610e93816117e6565b92915050565b600081519050610ea8816117e6565b92915050565b600060208284031215610ec457610ec36116db565b5b6000610ed284828501610d37565b91505092915050565b600060208284031215610ef157610ef06116db565b5b6000610eff84828501610d4c565b91505092915050565b600080600080600060808688031215610f2457610f236116db565b5b6000610f3288828901610d37565b9550506020610f4388828901610d37565b9450506040610f5488828901610e84565b935050606086013567ffffffffffffffff811115610f7557610f746116d6565b5b610f8188828901610e00565b92509250509295509295909350565b600060208284031215610fa657610fa56116db565b5b6000610fb484828501610e99565b91505092915050565b600080600080600080600080610100898b031215610fde57610fdd6116db565b5b6000610fec8b828c01610e84565b985050602089013567ffffffffffffffff81111561100d5761100c6116d6565b5b6110198b828c01610d8f565b975050604089013567ffffffffffffffff81111561103a576110396116d6565b5b6110468b828c01610d61565b965050606089013567ffffffffffffffff811115611067576110666116d6565b5b6110738b828c01610dbd565b955050608089013567ffffffffffffffff811115611094576110936116d6565b5b6110a08b828c01610d8f565b94505060a089013567ffffffffffffffff8111156110c1576110c06116d6565b5b6110cd8b828c01610d8f565b93505060c06110de8b828c01610deb565b92505060e06110ef8b828c01610deb565b9150509295985092959890939650565b611108816114bd565b82525050565b611117816114db565b82525050565b600061112882611490565b611132818561149b565b9350611142818560208601611588565b61114b816116e0565b840191505092915050565b61115f81611531565b82525050565b61116e81611543565b82525050565b60006111816026836114ac565b915061118c826116f1565b604082019050919050565b60006111a46020836114ac565b91506111af82611740565b602082019050919050565b60006111c7603a836114ac565b91506111d282611769565b604082019050919050565b6111e681611527565b82525050565b600060208201905061120160008301846110ff565b92915050565b600060608201905061121c60008301866110ff565b61122960208301856110ff565b61123660408301846111dd565b949350505050565b6000602082019050611253600083018461110e565b92915050565b600060208201905061126e6000830184611156565b92915050565b60006020820190506112896000830184611165565b92915050565b600060208201905081810360008301526112a881611174565b9050919050565b600060208201905081810360008301526112c881611197565b9050919050565b600060208201905081810360008301526112e8816111ba565b9050919050565b600060208201905061130460008301846111dd565b92915050565b600060408201905061131f60008301856111dd565b61132c60208301846110ff565b9392505050565b600060408201905061134860008301856111dd565b818103602083015261135a818461111d565b90509392505050565b600060808201905061137860008301876111dd565b61138560208301866111dd565b8181036040830152611397818561111d565b905081810360608301526113ab818461111d565b905095945050505050565b60006113c06113d1565b90506113cc82826115bb565b919050565b6000604051905090565b600067ffffffffffffffff8211156113f6576113f5611693565b5b602082029050602081019050919050565b600067ffffffffffffffff82111561142257611421611693565b5b602082029050602081019050919050565b600067ffffffffffffffff82111561144e5761144d611693565b5b602082029050602081019050919050565b600067ffffffffffffffff82111561147a57611479611693565b5b611483826116e0565b9050602081019050919050565b600081519050919050565b600082825260208201905092915050565b600082825260208201905092915050565b60006114c882611507565b9050919050565b60008115159050919050565b60007fffffffff0000000000000000000000000000000000000000000000000000000082169050919050565b600073ffffffffffffffffffffffffffffffffffffffff82169050919050565b6000819050919050565b600061153c82611555565b9050919050565b600061154e82611555565b9050919050565b600061156082611567565b9050919050565b600061157282611507565b9050919050565b82818337600083830152505050565b60005b838110156115a657808201518184015260208101905061158b565b838111156115b5576000848401525b50505050565b6115c4826116e0565b810181811067ffffffffffffffff821117156115e3576115e2611693565b5b80604052505050565b60006115f782611527565b91507fffffffffffffffffffffffffffffffffffffffffffffffffffffffffffffffff82141561162a57611629611635565b5b600182019050919050565b7f4e487b7100000000000000000000000000000000000000000000000000000000600052601160045260246000fd5b7f4e487b7100000000000000000000000000000000000000000000000000000000600052603260045260246000fd5b7f4e487b7100000000000000000000000000000000000000000000000000000000600052604160045260246000fd5b600080fd5b600080fd5b600080fd5b600080fd5b600080fd5b600080fd5b6000601f19601f8301169050919050565b7f4f776e61626c653a206e6577206f776e657220697320746865207a65726f206160008201527f6464726573730000000000000000000000000000000000000000000000000000602082015250565b7f4f776e61626c653a2063616c6c6572206973206e6f7420746865206f776e6572600082015250565b7f504b5048656c7065723a206f6e6c792061636365707473207472616e7366657260008201527f732066726f6d2074686520504b504e465420636f6e7472616374000000000000602082015250565b6117c1816114bd565b81146117cc57600080fd5b50565b6117d8816114cf565b81146117e357600080fd5b50565b6117ef81611527565b81146117fa57600080fd5b5056fea2646970667358221220ad86cc729408ecaa0bff6e5bf2633b767a5088d31e0197c76c7b8f7a0534908864736f6c63430008070033",
  "linkReferences": {},
  "deployedLinkReferences": {}
}