{
  "_format": "hh-sol-artifact-1",
  "contractName": "PKPNFT",
  "sourceName": "contracts/PKPNFT.sol",
  "abi": [
    {
      "inputs": [],
      "stateMutability": "nonpayable",
      "type": "constructor"
    },
    {
      "anonymous": false,
      "inputs": [
        {
          "indexed": true,
          "internalType": "address",
          "name": "owner",
          "type": "address"
        },
        {
          "indexed": true,
          "internalType": "address",
          "name": "approved",
          "type": "address"
        },
        {
          "indexed": true,
          "internalType": "uint256",
          "name": "tokenId",
          "type": "uint256"
        }
      ],
      "name": "Approval",
      "type": "event"
    },
    {
      "anonymous": false,
      "inputs": [
        {
          "indexed": true,
          "internalType": "address",
          "name": "owner",
          "type": "address"
        },
        {
          "indexed": true,
          "internalType": "address",
          "name": "operator",
          "type": "address"
        },
        {
          "indexed": false,
          "internalType": "bool",
          "name": "approved",
          "type": "bool"
        }
      ],
      "name": "ApprovalForAll",
      "type": "event"
    },
    {
      "anonymous": false,
      "inputs": [
        {
          "indexed": true,
          "internalType": "address",
          "name": "previousOwner",
          "type": "address"
        },
        {
          "indexed": true,
          "internalType": "address",
          "name": "newOwner",
          "type": "address"
        }
      ],
      "name": "OwnershipTransferred",
      "type": "event"
    },
    {
      "anonymous": false,
      "inputs": [
        {
          "indexed": true,
          "internalType": "address",
          "name": "from",
          "type": "address"
        },
        {
          "indexed": true,
          "internalType": "address",
          "name": "to",
          "type": "address"
        },
        {
          "indexed": true,
          "internalType": "uint256",
          "name": "tokenId",
          "type": "uint256"
        }
      ],
      "name": "Transfer",
      "type": "event"
    },
    {
      "inputs": [
        {
          "internalType": "address",
          "name": "to",
          "type": "address"
        },
        {
          "internalType": "uint256",
          "name": "tokenId",
          "type": "uint256"
        }
      ],
      "name": "approve",
      "outputs": [],
      "stateMutability": "nonpayable",
      "type": "function"
    },
    {
      "inputs": [
        {
          "internalType": "address",
          "name": "owner",
          "type": "address"
        }
      ],
      "name": "balanceOf",
      "outputs": [
        {
          "internalType": "uint256",
          "name": "",
          "type": "uint256"
        }
      ],
      "stateMutability": "view",
      "type": "function"
    },
    {
      "inputs": [
        {
          "internalType": "uint256",
          "name": "tokenId",
          "type": "uint256"
        }
      ],
      "name": "burn",
      "outputs": [],
      "stateMutability": "nonpayable",
      "type": "function"
    },
    {
      "inputs": [],
      "name": "contractBalance",
      "outputs": [
        {
          "internalType": "uint256",
          "name": "",
          "type": "uint256"
        }
      ],
      "stateMutability": "view",
      "type": "function"
    },
    {
      "inputs": [
        {
          "internalType": "uint256",
          "name": "keyType",
          "type": "uint256"
        },
        {
          "internalType": "uint256",
          "name": "freeMintId",
          "type": "uint256"
        },
        {
          "internalType": "bytes",
          "name": "ipfsCID",
          "type": "bytes"
        },
        {
          "internalType": "bytes32",
          "name": "msgHash",
          "type": "bytes32"
        },
        {
          "internalType": "uint8",
          "name": "v",
          "type": "uint8"
        },
        {
          "internalType": "bytes32",
          "name": "r",
          "type": "bytes32"
        },
        {
          "internalType": "bytes32",
          "name": "s",
          "type": "bytes32"
        }
      ],
      "name": "freeMintGrantAndBurnNext",
      "outputs": [
        {
          "internalType": "uint256",
          "name": "",
          "type": "uint256"
        }
      ],
      "stateMutability": "nonpayable",
      "type": "function"
    },
    {
      "inputs": [
        {
          "internalType": "uint256",
          "name": "keyType",
          "type": "uint256"
        },
        {
          "internalType": "uint256",
          "name": "freeMintId",
          "type": "uint256"
        },
        {
          "internalType": "bytes32",
          "name": "msgHash",
          "type": "bytes32"
        },
        {
          "internalType": "uint8",
          "name": "v",
          "type": "uint8"
        },
        {
          "internalType": "bytes32",
          "name": "r",
          "type": "bytes32"
        },
        {
          "internalType": "bytes32",
          "name": "s",
          "type": "bytes32"
        }
      ],
      "name": "freeMintNext",
      "outputs": [
        {
          "internalType": "uint256",
          "name": "",
          "type": "uint256"
        }
      ],
      "stateMutability": "nonpayable",
      "type": "function"
    },
    {
      "inputs": [
        {
          "internalType": "uint256",
          "name": "freeMintId",
          "type": "uint256"
        },
        {
          "internalType": "bytes32",
          "name": "msgHash",
          "type": "bytes32"
        },
        {
          "internalType": "uint8",
          "name": "v",
          "type": "uint8"
        },
        {
          "internalType": "bytes32",
          "name": "r",
          "type": "bytes32"
        },
        {
          "internalType": "bytes32",
          "name": "s",
          "type": "bytes32"
        }
      ],
      "name": "freeMintSigTest",
      "outputs": [],
      "stateMutability": "view",
      "type": "function"
    },
    {
      "inputs": [],
      "name": "freeMintSigner",
      "outputs": [
        {
          "internalType": "address",
          "name": "",
          "type": "address"
        }
      ],
      "stateMutability": "view",
      "type": "function"
    },
    {
      "inputs": [
        {
          "internalType": "uint256",
          "name": "tokenId",
          "type": "uint256"
        }
      ],
      "name": "getApproved",
      "outputs": [
        {
          "internalType": "address",
          "name": "",
          "type": "address"
        }
      ],
      "stateMutability": "view",
      "type": "function"
    },
    {
      "inputs": [
        {
          "internalType": "uint256",
          "name": "tokenId",
          "type": "uint256"
        }
      ],
      "name": "getEthAddress",
      "outputs": [
        {
          "internalType": "address",
          "name": "",
          "type": "address"
        }
      ],
      "stateMutability": "view",
      "type": "function"
    },
    {
      "inputs": [
        {
          "internalType": "uint256",
          "name": "tokenId",
          "type": "uint256"
        }
      ],
      "name": "getPubkey",
      "outputs": [
        {
          "internalType": "bytes",
          "name": "",
          "type": "bytes"
        }
      ],
      "stateMutability": "view",
      "type": "function"
    },
    {
      "inputs": [
        {
          "internalType": "uint256",
          "name": "keyType",
          "type": "uint256"
        }
      ],
      "name": "getUnmintedRoutedTokenIdCount",
      "outputs": [
        {
          "internalType": "uint256",
          "name": "",
          "type": "uint256"
        }
      ],
      "stateMutability": "view",
      "type": "function"
    },
    {
      "inputs": [
        {
          "internalType": "address",
          "name": "owner",
          "type": "address"
        },
        {
          "internalType": "address",
          "name": "operator",
          "type": "address"
        }
      ],
      "name": "isApprovedForAll",
      "outputs": [
        {
          "internalType": "bool",
          "name": "",
          "type": "bool"
        }
      ],
      "stateMutability": "view",
      "type": "function"
    },
    {
      "inputs": [],
      "name": "mintCost",
      "outputs": [
        {
          "internalType": "uint256",
          "name": "",
          "type": "uint256"
        }
      ],
      "stateMutability": "view",
      "type": "function"
    },
    {
      "inputs": [
        {
          "internalType": "uint256",
          "name": "keyType",
          "type": "uint256"
        },
        {
          "internalType": "bytes",
          "name": "ipfsCID",
          "type": "bytes"
        }
      ],
      "name": "mintGrantAndBurnNext",
      "outputs": [
        {
          "internalType": "uint256",
          "name": "",
          "type": "uint256"
        }
      ],
      "stateMutability": "payable",
      "type": "function"
    },
    {
      "inputs": [
        {
          "internalType": "uint256",
          "name": "tokenId",
          "type": "uint256"
        },
        {
          "internalType": "bytes",
          "name": "ipfsCID",
          "type": "bytes"
        }
      ],
      "name": "mintGrantAndBurnSpecific",
      "outputs": [],
      "stateMutability": "nonpayable",
      "type": "function"
    },
    {
      "inputs": [
        {
          "internalType": "uint256",
          "name": "keyType",
          "type": "uint256"
        }
      ],
      "name": "mintNext",
      "outputs": [
        {
          "internalType": "uint256",
          "name": "",
          "type": "uint256"
        }
      ],
      "stateMutability": "payable",
      "type": "function"
    },
    {
      "inputs": [
        {
          "internalType": "uint256",
          "name": "tokenId",
          "type": "uint256"
        }
      ],
      "name": "mintSpecific",
      "outputs": [],
      "stateMutability": "nonpayable",
      "type": "function"
    },
    {
      "inputs": [],
      "name": "name",
      "outputs": [
        {
          "internalType": "string",
          "name": "",
          "type": "string"
        }
      ],
      "stateMutability": "view",
      "type": "function"
    },
    {
      "inputs": [],
      "name": "owner",
      "outputs": [
        {
          "internalType": "address",
          "name": "",
          "type": "address"
        }
      ],
      "stateMutability": "view",
      "type": "function"
    },
    {
      "inputs": [
        {
          "internalType": "uint256",
          "name": "tokenId",
          "type": "uint256"
        }
      ],
      "name": "ownerOf",
      "outputs": [
        {
          "internalType": "address",
          "name": "",
          "type": "address"
        }
      ],
      "stateMutability": "view",
      "type": "function"
    },
    {
      "inputs": [],
      "name": "pkpPermissions",
      "outputs": [
        {
          "internalType": "contract PKPPermissions",
          "name": "",
          "type": "address"
        }
      ],
      "stateMutability": "view",
      "type": "function"
    },
    {
      "inputs": [
        {
          "internalType": "uint256",
          "name": "tokenId",
          "type": "uint256"
        },
        {
          "internalType": "uint256",
          "name": "keyType",
          "type": "uint256"
        }
      ],
      "name": "pkpRouted",
      "outputs": [],
      "stateMutability": "nonpayable",
      "type": "function"
    },
    {
      "inputs": [
        {
          "internalType": "bytes32",
          "name": "hash",
          "type": "bytes32"
        }
      ],
      "name": "prefixed",
      "outputs": [
        {
          "internalType": "bytes32",
          "name": "",
          "type": "bytes32"
        }
      ],
      "stateMutability": "pure",
      "type": "function"
    },
    {
      "inputs": [
        {
          "internalType": "uint256",
          "name": "",
          "type": "uint256"
        }
      ],
      "name": "redeemedFreeMintIds",
      "outputs": [
        {
          "internalType": "bool",
          "name": "",
          "type": "bool"
        }
      ],
      "stateMutability": "view",
      "type": "function"
    },
    {
      "inputs": [],
      "name": "renounceOwnership",
      "outputs": [],
      "stateMutability": "nonpayable",
      "type": "function"
    },
    {
      "inputs": [],
      "name": "router",
      "outputs": [
        {
          "internalType": "contract PubkeyRouter",
          "name": "",
          "type": "address"
        }
      ],
      "stateMutability": "view",
      "type": "function"
    },
    {
      "inputs": [
        {
          "internalType": "address",
          "name": "from",
          "type": "address"
        },
        {
          "internalType": "address",
          "name": "to",
          "type": "address"
        },
        {
          "internalType": "uint256",
          "name": "tokenId",
          "type": "uint256"
        }
      ],
      "name": "safeTransferFrom",
      "outputs": [],
      "stateMutability": "nonpayable",
      "type": "function"
    },
    {
      "inputs": [
        {
          "internalType": "address",
          "name": "from",
          "type": "address"
        },
        {
          "internalType": "address",
          "name": "to",
          "type": "address"
        },
        {
          "internalType": "uint256",
          "name": "tokenId",
          "type": "uint256"
        },
        {
          "internalType": "bytes",
          "name": "data",
          "type": "bytes"
        }
      ],
      "name": "safeTransferFrom",
      "outputs": [],
      "stateMutability": "nonpayable",
      "type": "function"
    },
    {
      "inputs": [
        {
          "internalType": "address",
          "name": "operator",
          "type": "address"
        },
        {
          "internalType": "bool",
          "name": "approved",
          "type": "bool"
        }
      ],
      "name": "setApprovalForAll",
      "outputs": [],
      "stateMutability": "nonpayable",
      "type": "function"
    },
    {
      "inputs": [
        {
          "internalType": "address",
          "name": "newFreeMintSigner",
          "type": "address"
        }
      ],
      "name": "setFreeMintSigner",
      "outputs": [],
      "stateMutability": "nonpayable",
      "type": "function"
    },
    {
      "inputs": [
        {
          "internalType": "uint256",
          "name": "newMintCost",
          "type": "uint256"
        }
      ],
      "name": "setMintCost",
      "outputs": [],
      "stateMutability": "nonpayable",
      "type": "function"
    },
    {
      "inputs": [
        {
          "internalType": "address",
          "name": "pkpPermissionsAddress",
          "type": "address"
        }
      ],
      "name": "setPkpPermissionsAddress",
      "outputs": [],
      "stateMutability": "nonpayable",
      "type": "function"
    },
    {
      "inputs": [
        {
          "internalType": "address",
          "name": "routerAddress",
          "type": "address"
        }
      ],
      "name": "setRouterAddress",
      "outputs": [],
      "stateMutability": "nonpayable",
      "type": "function"
    },
    {
      "inputs": [
        {
          "internalType": "bytes4",
          "name": "interfaceId",
          "type": "bytes4"
        }
      ],
      "name": "supportsInterface",
      "outputs": [
        {
          "internalType": "bool",
          "name": "",
          "type": "bool"
        }
      ],
      "stateMutability": "view",
      "type": "function"
    },
    {
      "inputs": [],
      "name": "symbol",
      "outputs": [
        {
          "internalType": "string",
          "name": "",
          "type": "string"
        }
      ],
      "stateMutability": "view",
      "type": "function"
    },
    {
      "inputs": [
        {
          "internalType": "uint256",
          "name": "index",
          "type": "uint256"
        }
      ],
      "name": "tokenByIndex",
      "outputs": [
        {
          "internalType": "uint256",
          "name": "",
          "type": "uint256"
        }
      ],
      "stateMutability": "view",
      "type": "function"
    },
    {
      "inputs": [
        {
          "internalType": "address",
          "name": "owner",
          "type": "address"
        },
        {
          "internalType": "uint256",
          "name": "index",
          "type": "uint256"
        }
      ],
      "name": "tokenOfOwnerByIndex",
      "outputs": [
        {
          "internalType": "uint256",
          "name": "",
          "type": "uint256"
        }
      ],
      "stateMutability": "view",
      "type": "function"
    },
    {
      "inputs": [
        {
          "internalType": "uint256",
          "name": "tokenId",
          "type": "uint256"
        }
      ],
      "name": "tokenURI",
      "outputs": [
        {
          "internalType": "string",
          "name": "",
          "type": "string"
        }
      ],
      "stateMutability": "view",
      "type": "function"
    },
    {
      "inputs": [],
      "name": "totalSupply",
      "outputs": [
        {
          "internalType": "uint256",
          "name": "",
          "type": "uint256"
        }
      ],
      "stateMutability": "view",
      "type": "function"
    },
    {
      "inputs": [
        {
          "internalType": "address",
          "name": "from",
          "type": "address"
        },
        {
          "internalType": "address",
          "name": "to",
          "type": "address"
        },
        {
          "internalType": "uint256",
          "name": "tokenId",
          "type": "uint256"
        }
      ],
      "name": "transferFrom",
      "outputs": [],
      "stateMutability": "nonpayable",
      "type": "function"
    },
    {
      "inputs": [
        {
          "internalType": "address",
          "name": "newOwner",
          "type": "address"
        }
      ],
      "name": "transferOwnership",
      "outputs": [],
      "stateMutability": "nonpayable",
      "type": "function"
    },
    {
      "inputs": [
        {
          "internalType": "uint256",
          "name": "",
          "type": "uint256"
        },
        {
          "internalType": "uint256",
          "name": "",
          "type": "uint256"
        }
      ],
      "name": "unmintedRoutedTokenIds",
      "outputs": [
        {
          "internalType": "uint256",
          "name": "",
          "type": "uint256"
        }
      ],
      "stateMutability": "view",
      "type": "function"
    },
    {
      "inputs": [],
      "name": "withdraw",
      "outputs": [],
      "stateMutability": "nonpayable",
      "type": "function"
    }
  ],
  "bytecode": "0x60806040523480156200001157600080fd5b506040518060400160405280601481526020017f50726f6772616d6d61626c65204b6579706169720000000000000000000000008152506040518060400160405280600381526020017f504b500000000000000000000000000000000000000000000000000000000000815250816000908051906020019062000096929190620001f4565b508060019080519060200190620000af929190620001f4565b505050620000d2620000c66200012660201b60201c565b6200012e60201b60201c565b655af3107a4000600d8190555033600f60006101000a81548173ffffffffffffffffffffffffffffffffffffffff021916908373ffffffffffffffffffffffffffffffffffffffff16021790555062000309565b600033905090565b6000600660009054906101000a900473ffffffffffffffffffffffffffffffffffffffff16905081600660006101000a81548173ffffffffffffffffffffffffffffffffffffffff021916908373ffffffffffffffffffffffffffffffffffffffff1602179055508173ffffffffffffffffffffffffffffffffffffffff168173ffffffffffffffffffffffffffffffffffffffff167f8be0079c531659141344cd1fd0a4f28419497f9722a3daafe3b4186f6b6457e060405160405180910390a35050565b8280546200020290620002a4565b90600052602060002090601f01602090048101928262000226576000855562000272565b82601f106200024157805160ff191683800117855562000272565b8280016001018555821562000272579182015b828111156200027157825182559160200191906001019062000254565b5b50905062000281919062000285565b5090565b5b80821115620002a057600081600090555060010162000286565b5090565b60006002820490506001821680620002bd57607f821691505b60208210811415620002d457620002d3620002da565b5b50919050565b7f4e487b7100000000000000000000000000000000000000000000000000000000600052602260045260246000fd5b615ba280620003196000396000f3fe6080604052600436106102675760003560e01c806366a306d711610144578063bd4986a0116100b6578063e985e9c51161007a578063e985e9c514610980578063ef6fd878146109bd578063f2fde38b146109fa578063f556aeb114610a23578063f70e72ef14610a4c578063f887ea4014610a8957610267565b8063bd4986a014610875578063bdb4b848146108b2578063c87b56dd146108dd578063d34368261461091a578063d7b0398b1461094357610267565b80638da5cb5b116101085780638da5cb5b1461077757806395d89b41146107a257806397016f3f146107cd578063a22cb465146107f8578063b88d4fde14610821578063b94a21021461084a57610267565b806366a306d71461069f57806370a08231146106cf578063715018a61461070c5780638545f4ea146107235780638b7afe2e1461074c57610267565b80633ccfd60b116101dd5780634c19eae6116101a15780634c19eae6146105665780634f6ccce71461058f57806356e3a1ae146105cc5780635c110a9c146106095780635d228b16146106325780636352211e1461066257610267565b80633ccfd60b1461049757806341cb87fc146104ae57806342842e0e146104d757806342966c681461050057806342dd8fcb1461052957610267565b806318160ddd1161022f57806318160ddd146103775780631ea89a22146103a25780631f275713146103cb57806323b872dd146104085780632f745c59146104315780633b1898521461046e57610267565b806301ffc9a71461026c57806306fdde03146102a9578063081812fc146102d4578063095ea7b3146103115780631582391c1461033a575b600080fd5b34801561027857600080fd5b50610293600480360381019061028e919061381a565b610ab4565b6040516102a091906141de565b60405180910390f35b3480156102b557600080fd5b506102be610bee565b6040516102cb91906142b1565b60405180910390f35b3480156102e057600080fd5b506102fb60048036038101906102f691906138bd565b610c80565b6040516103089190614177565b60405180910390f35b34801561031d57600080fd5b5061033860048036038101906103339190613780565b610cc6565b005b34801561034657600080fd5b50610361600480360381019061035c9190613a01565b610dde565b60405161036e9190614593565b60405180910390f35b34801561038357600080fd5b5061038c610e08565b6040516103999190614593565b60405180910390f35b3480156103ae57600080fd5b506103c960048036038101906103c491906135d0565b610e15565b005b3480156103d757600080fd5b506103f260048036038101906103ed91906137ed565b610e61565b6040516103ff91906141f9565b60405180910390f35b34801561041457600080fd5b5061042f600480360381019061042a919061366a565b610e91565b005b34801561043d57600080fd5b5061045860048036038101906104539190613780565b610ef1565b6040516104659190614593565b60405180910390f35b34801561047a57600080fd5b50610495600480360381019061049091906135d0565b610f96565b005b3480156104a357600080fd5b506104ac610fe2565b005b3480156104ba57600080fd5b506104d560048036038101906104d091906135d0565b61103d565b005b3480156104e357600080fd5b506104fe60048036038101906104f9919061366a565b611089565b005b34801561050c57600080fd5b50610527600480360381019061052291906138bd565b6110a9565b005b34801561053557600080fd5b50610550600480360381019061054b91906138bd565b611105565b60405161055d9190614593565b60405180910390f35b34801561057257600080fd5b5061058d600480360381019061058891906138ea565b611125565b005b34801561059b57600080fd5b506105b660048036038101906105b191906138bd565b6112ef565b6040516105c39190614593565b60405180910390f35b3480156105d857600080fd5b506105f360048036038101906105ee91906138bd565b611360565b60405161060091906141de565b60405180910390f35b34801561061557600080fd5b50610630600480360381019061062b91906139c1565b611380565b005b61064c600480360381019061064791906138bd565b61144e565b6040516106599190614593565b60405180910390f35b34801561066e57600080fd5b50610689600480360381019061068491906138bd565b6114b4565b6040516106969190614177565b60405180910390f35b6106b960048036038101906106b49190613965565b611566565b6040516106c69190614593565b60405180910390f35b3480156106db57600080fd5b506106f660048036038101906106f191906135d0565b611665565b6040516107039190614593565b60405180910390f35b34801561071857600080fd5b5061072161171d565b005b34801561072f57600080fd5b5061074a600480360381019061074591906138bd565b611731565b005b34801561075857600080fd5b50610761611743565b60405161076e9190614593565b60405180910390f35b34801561078357600080fd5b5061078c611749565b6040516107999190614177565b60405180910390f35b3480156107ae57600080fd5b506107b7611773565b6040516107c491906142b1565b60405180910390f35b3480156107d957600080fd5b506107e2611805565b6040516107ef919061427b565b60405180910390f35b34801561080457600080fd5b5061081f600480360381019061081a9190613740565b61182b565b005b34801561082d57600080fd5b50610848600480360381019061084391906136bd565b611841565b005b34801561085657600080fd5b5061085f6118a3565b60405161086c9190614177565b60405180910390f35b34801561088157600080fd5b5061089c600480360381019061089791906138bd565b6118c9565b6040516108a99190614177565b60405180910390f35b3480156108be57600080fd5b506108c761197d565b6040516108d49190614593565b60405180910390f35b3480156108e957600080fd5b5061090460048036038101906108ff91906138bd565b611983565b60405161091191906142b1565b60405180910390f35b34801561092657600080fd5b50610941600480360381019061093c91906138bd565b611b63565b005b34801561094f57600080fd5b5061096a60048036038101906109659190613a8e565b611b78565b6040516109779190614593565b60405180910390f35b34801561098c57600080fd5b506109a760048036038101906109a2919061362a565b611ba4565b6040516109b491906141de565b60405180910390f35b3480156109c957600080fd5b506109e460048036038101906109df91906138bd565b611c38565b6040516109f19190614259565b60405180910390f35b348015610a0657600080fd5b50610a216004803603810190610a1c91906135d0565b611cf1565b005b348015610a2f57600080fd5b50610a4a6004803603810190610a459190613965565b611d75565b005b348015610a5857600080fd5b50610a736004803603810190610a6e91906139c1565b611e23565b604051610a809190614593565b60405180910390f35b348015610a9557600080fd5b50610a9e611e54565b604051610aab9190614296565b60405180910390f35b60007f780e9d63000000000000000000000000000000000000000000000000000000007bffffffffffffffffffffffffffffffffffffffffffffffffffffffff1916827bffffffffffffffffffffffffffffffffffffffffffffffffffffffff19161480610b7f57507f5b5e139f000000000000000000000000000000000000000000000000000000007bffffffffffffffffffffffffffffffffffffffffffffffffffffffff1916827bffffffffffffffffffffffffffffffffffffffffffffffffffffffff1916145b80610be757507f80ac58cd000000000000000000000000000000000000000000000000000000007bffffffffffffffffffffffffffffffffffffffffffffffffffffffff1916827bffffffffffffffffffffffffffffffffffffffffffffffffffffffff1916145b9050919050565b606060008054610bfd906148ac565b80601f0160208091040260200160405190810160405280929190818152602001828054610c29906148ac565b8015610c765780601f10610c4b57610100808354040283529160200191610c76565b820191906000526020600020905b815481529060010190602001808311610c5957829003601f168201915b5050505050905090565b6000610c8b82611e7a565b6004600083815260200190815260200160002060009054906101000a900473ffffffffffffffffffffffffffffffffffffffff169050919050565b6000610cd1826114b4565b90508073ffffffffffffffffffffffffffffffffffffffff168373ffffffffffffffffffffffffffffffffffffffff161415610d42576040517f08c379a0000000000000000000000000000000000000000000000000000000008152600401610d39906144d3565b60405180910390fd5b8073ffffffffffffffffffffffffffffffffffffffff16610d61611ec5565b73ffffffffffffffffffffffffffffffffffffffff161480610d905750610d8f81610d8a611ec5565b611ba4565b5b610dcf576040517f08c379a0000000000000000000000000000000000000000000000000000000008152600401610dc690614453565b60405180910390fd5b610dd98383611ecd565b505050565b600080610dea88611f86565b9050610dfa878288888888612078565b809150509695505050505050565b6000600980549050905090565b610e1d6120c3565b80600c60006101000a81548173ffffffffffffffffffffffffffffffffffffffff021916908373ffffffffffffffffffffffffffffffffffffffff16021790555050565b600081604051602001610e7491906140ce565b604051602081830303815290604052805190602001209050919050565b610ea2610e9c611ec5565b82612141565b610ee1576040517f08c379a0000000000000000000000000000000000000000000000000000000008152600401610ed890614573565b60405180910390fd5b610eec8383836121d6565b505050565b6000610efc83611665565b8210610f3d576040517f08c379a0000000000000000000000000000000000000000000000000000000008152600401610f3490614313565b60405180910390fd5b600760008473ffffffffffffffffffffffffffffffffffffffff1673ffffffffffffffffffffffffffffffffffffffff168152602001908152602001600020600083815260200190815260200160002054905092915050565b610f9e6120c3565b80600f60006101000a81548173ffffffffffffffffffffffffffffffffffffffff021916908373ffffffffffffffffffffffffffffffffffffffff16021790555050565b610fea6120c3565b3373ffffffffffffffffffffffffffffffffffffffff166108fc600e549081150290604051600060405180830381858888f19350505050158015611032573d6000803e3d6000fd5b506000600e81905550565b6110456120c3565b80600b60006101000a81548173ffffffffffffffffffffffffffffffffffffffff021916908373ffffffffffffffffffffffffffffffffffffffff16021790555050565b6110a483838360405180602001604052806000815250611841565b505050565b6110ba6110b4611ec5565b82612141565b6110f9576040517f08c379a00000000000000000000000000000000000000000000000000000000081526004016110f090614573565b60405180910390fd5b6111028161243d565b50565b600060106000838152602001908152602001600020805490509050919050565b6000611158308760405160200161113d9291906140a2565b60405160208183030381529060405280519060200120610e61565b905084811461119c576040517f08c379a000000000000000000000000000000000000000000000000000000000815260040161119390614533565b60405180910390fd5b6000600186868686604051600081526020016040526040516111c19493929190614214565b6020604051602081039080840390855afa1580156111e3573d6000803e3d6000fd5b505050602060405103519050600f60009054906101000a900473ffffffffffffffffffffffffffffffffffffffff1673ffffffffffffffffffffffffffffffffffffffff168173ffffffffffffffffffffffffffffffffffffffff161461127f576040517f08c379a0000000000000000000000000000000000000000000000000000000008152600401611276906144f3565b60405180910390fd5b600015156011600089815260200190815260200160002060009054906101000a900460ff161515146112e6576040517f08c379a00000000000000000000000000000000000000000000000000000000081526004016112dd90614553565b60405180910390fd5b50505050505050565b60006112f9610e08565b821061133a576040517f08c379a000000000000000000000000000000000000000000000000000000000815260040161133190614513565b60405180910390fd5b6009828154811061134e5761134d614a03565b5b90600052602060002001549050919050565b60116020528060005260406000206000915054906101000a900460ff1681565b600b60009054906101000a900473ffffffffffffffffffffffffffffffffffffffff1673ffffffffffffffffffffffffffffffffffffffff163373ffffffffffffffffffffffffffffffffffffffff1614611410576040517f08c379a0000000000000000000000000000000000000000000000000000000008152600401611407906142d3565b60405180910390fd5b601060008281526020019081526020016000208290806001815401808255809150506001900390600052602060002001600090919091909150555050565b6000600d543414611494576040517f08c379a000000000000000000000000000000000000000000000000000000000815260040161148b90614353565b60405180910390fd5b600061149f83611f86565b90506114ab813361255a565b80915050919050565b6000806002600084815260200190815260200160002060009054906101000a900473ffffffffffffffffffffffffffffffffffffffff169050600073ffffffffffffffffffffffffffffffffffffffff168173ffffffffffffffffffffffffffffffffffffffff16141561155d576040517f08c379a0000000000000000000000000000000000000000000000000000000008152600401611554906144b3565b60405180910390fd5b80915050919050565b6000600d5434146115ac576040517f08c379a00000000000000000000000000000000000000000000000000000000081526004016115a390614353565b60405180910390fd5b60006115b784611f86565b90506115c3813061255a565b600c60009054906101000a900473ffffffffffffffffffffffffffffffffffffffff1673ffffffffffffffffffffffffffffffffffffffff166354b06ae382856040518363ffffffff1660e01b81526004016116209291906145ae565b600060405180830381600087803b15801561163a57600080fd5b505af115801561164e573d6000803e3d6000fd5b5050505061165b8161243d565b8091505092915050565b60008073ffffffffffffffffffffffffffffffffffffffff168273ffffffffffffffffffffffffffffffffffffffff1614156116d6576040517f08c379a00000000000000000000000000000000000000000000000000000000081526004016116cd90614433565b60405180910390fd5b600360008373ffffffffffffffffffffffffffffffffffffffff1673ffffffffffffffffffffffffffffffffffffffff168152602001908152602001600020549050919050565b6117256120c3565b61172f60006126af565b565b6117396120c3565b80600d8190555050565b600e5481565b6000600660009054906101000a900473ffffffffffffffffffffffffffffffffffffffff16905090565b606060018054611782906148ac565b80601f01602080910402602001604051908101604052809291908181526020018280546117ae906148ac565b80156117fb5780601f106117d0576101008083540402835291602001916117fb565b820191906000526020600020905b8154815290600101906020018083116117de57829003601f168201915b5050505050905090565b600c60009054906101000a900473ffffffffffffffffffffffffffffffffffffffff1681565b61183d611836611ec5565b8383612775565b5050565b61185261184c611ec5565b83612141565b611891576040517f08c379a000000000000000000000000000000000000000000000000000000000815260040161188890614573565b60405180910390fd5b61189d848484846128e2565b50505050565b600f60009054906101000a900473ffffffffffffffffffffffffffffffffffffffff1681565b6000600b60009054906101000a900473ffffffffffffffffffffffffffffffffffffffff1673ffffffffffffffffffffffffffffffffffffffff1663bd4986a0836040518263ffffffff1660e01b81526004016119269190614593565b60206040518083038186803b15801561193e57600080fd5b505afa158015611952573d6000803e3d6000fd5b505050506040513d601f19601f8201168201806040525081019061197691906135fd565b9050919050565b600d5481565b60606000604051806108400160405280610803815260200161532a610803913990506000600b60009054906101000a900473ffffffffffffffffffffffffffffffffffffffff1673ffffffffffffffffffffffffffffffffffffffff1663ef6fd878856040518263ffffffff1660e01b8152600401611a029190614593565b60006040518083038186803b158015611a1a57600080fd5b505afa158015611a2e573d6000803e3d6000fd5b505050506040513d6000823e3d601f19601f82011682018060405250810190611a579190613874565b90506000600b60009054906101000a900473ffffffffffffffffffffffffffffffffffffffff1673ffffffffffffffffffffffffffffffffffffffff1663bd4986a0866040518263ffffffff1660e01b8152600401611ab69190614593565b60206040518083038186803b158015611ace57600080fd5b505afa158015611ae2573d6000803e3d6000fd5b505050506040513d601f19601f82011682018060405250810190611b0691906135fd565b90506000611b36848484604051602001611b22939291906140f4565b60405160208183030381529060405261293e565b905080604051602001611b499190614155565b604051602081830303815290604052945050505050919050565b611b6b6120c3565b611b75813361255a565b50565b600080611b8489611f86565b9050611b9588828989898989612aa2565b80915050979650505050505050565b6000600560008473ffffffffffffffffffffffffffffffffffffffff1673ffffffffffffffffffffffffffffffffffffffff16815260200190815260200160002060008373ffffffffffffffffffffffffffffffffffffffff1673ffffffffffffffffffffffffffffffffffffffff16815260200190815260200160002060009054906101000a900460ff16905092915050565b6060600b60009054906101000a900473ffffffffffffffffffffffffffffffffffffffff1673ffffffffffffffffffffffffffffffffffffffff1663ef6fd878836040518263ffffffff1660e01b8152600401611c959190614593565b60006040518083038186803b158015611cad57600080fd5b505afa158015611cc1573d6000803e3d6000fd5b505050506040513d6000823e3d601f19601f82011682018060405250810190611cea9190613874565b9050919050565b611cf96120c3565b600073ffffffffffffffffffffffffffffffffffffffff168173ffffffffffffffffffffffffffffffffffffffff161415611d69576040517f08c379a0000000000000000000000000000000000000000000000000000000008152600401611d6090614373565b60405180910390fd5b611d72816126af565b50565b611d7d6120c3565b611d87823061255a565b600c60009054906101000a900473ffffffffffffffffffffffffffffffffffffffff1673ffffffffffffffffffffffffffffffffffffffff166354b06ae383836040518363ffffffff1660e01b8152600401611de49291906145ae565b600060405180830381600087803b158015611dfe57600080fd5b505af1158015611e12573d6000803e3d6000fd5b50505050611e1f8261243d565b5050565b60106020528160005260406000208181548110611e3f57600080fd5b90600052602060002001600091509150505481565b600b60009054906101000a900473ffffffffffffffffffffffffffffffffffffffff1681565b611e8381612b86565b611ec2576040517f08c379a0000000000000000000000000000000000000000000000000000000008152600401611eb9906144b3565b60405180910390fd5b50565b600033905090565b816004600083815260200190815260200160002060006101000a81548173ffffffffffffffffffffffffffffffffffffffff021916908373ffffffffffffffffffffffffffffffffffffffff160217905550808273ffffffffffffffffffffffffffffffffffffffff16611f40836114b4565b73ffffffffffffffffffffffffffffffffffffffff167f8c5be1e5ebec7d5bd14f71427d1e84f3dd0314c0f7b2291e5b200ac8c7c3b92560405160405180910390a45050565b600080601060008481526020019081526020016000208054905011611fe0576040517f08c379a0000000000000000000000000000000000000000000000000000000008152600401611fd7906142f3565b60405180910390fd5b600060106000848152602001908152602001600020600160106000868152602001908152602001600020805490506120189190614763565b8154811061202957612028614a03565b5b9060005260206000200154905060106000848152602001908152602001600020805480612059576120586149d4565b5b6001900381819060005260206000200160009055905580915050919050565b6120858685858585611125565b61208f853361255a565b60016011600088815260200190815260200160002060006101000a81548160ff021916908315150217905550505050505050565b6120cb611ec5565b73ffffffffffffffffffffffffffffffffffffffff166120e9611749565b73ffffffffffffffffffffffffffffffffffffffff161461213f576040517f08c379a000000000000000000000000000000000000000000000000000000000815260040161213690614493565b60405180910390fd5b565b60008061214d836114b4565b90508073ffffffffffffffffffffffffffffffffffffffff168473ffffffffffffffffffffffffffffffffffffffff16148061218f575061218e8185611ba4565b5b806121cd57508373ffffffffffffffffffffffffffffffffffffffff166121b584610c80565b73ffffffffffffffffffffffffffffffffffffffff16145b91505092915050565b8273ffffffffffffffffffffffffffffffffffffffff166121f6826114b4565b73ffffffffffffffffffffffffffffffffffffffff161461224c576040517f08c379a000000000000000000000000000000000000000000000000000000000815260040161224390614393565b60405180910390fd5b600073ffffffffffffffffffffffffffffffffffffffff168273ffffffffffffffffffffffffffffffffffffffff1614156122bc576040517f08c379a00000000000000000000000000000000000000000000000000000000081526004016122b3906143f3565b60405180910390fd5b6122c7838383612bf2565b6122d2600082611ecd565b6001600360008573ffffffffffffffffffffffffffffffffffffffff1673ffffffffffffffffffffffffffffffffffffffff16815260200190815260200160002060008282546123229190614763565b925050819055506001600360008473ffffffffffffffffffffffffffffffffffffffff1673ffffffffffffffffffffffffffffffffffffffff16815260200190815260200160002060008282546123799190614682565b92505081905550816002600083815260200190815260200160002060006101000a81548173ffffffffffffffffffffffffffffffffffffffff021916908373ffffffffffffffffffffffffffffffffffffffff160217905550808273ffffffffffffffffffffffffffffffffffffffff168473ffffffffffffffffffffffffffffffffffffffff167fddf252ad1be2c89b69c2b068fc378daa952ba7f163c4a11628f55a4df523b3ef60405160405180910390a4612438838383612c02565b505050565b6000612448826114b4565b905061245681600084612bf2565b612461600083611ecd565b6001600360008373ffffffffffffffffffffffffffffffffffffffff1673ffffffffffffffffffffffffffffffffffffffff16815260200190815260200160002060008282546124b19190614763565b925050819055506002600083815260200190815260200160002060006101000a81549073ffffffffffffffffffffffffffffffffffffffff021916905581600073ffffffffffffffffffffffffffffffffffffffff168273ffffffffffffffffffffffffffffffffffffffff167fddf252ad1be2c89b69c2b068fc378daa952ba7f163c4a11628f55a4df523b3ef60405160405180910390a461255681600084612c02565b5050565b600b60009054906101000a900473ffffffffffffffffffffffffffffffffffffffff1673ffffffffffffffffffffffffffffffffffffffff166301c6d035836040518263ffffffff1660e01b81526004016125b59190614593565b60206040518083038186803b1580156125cd57600080fd5b505afa1580156125e1573d6000803e3d6000fd5b505050506040513d601f19601f8201168201806040525081019061260591906137c0565b612644576040517f08c379a000000000000000000000000000000000000000000000000000000000815260040161263b906143d3565b60405180910390fd5b3073ffffffffffffffffffffffffffffffffffffffff168173ffffffffffffffffffffffffffffffffffffffff161415612687576126828183612c07565b612692565b6126918183612de1565b5b34600e60008282546126a49190614682565b925050819055505050565b6000600660009054906101000a900473ffffffffffffffffffffffffffffffffffffffff16905081600660006101000a81548173ffffffffffffffffffffffffffffffffffffffff021916908373ffffffffffffffffffffffffffffffffffffffff1602179055508173ffffffffffffffffffffffffffffffffffffffff168173ffffffffffffffffffffffffffffffffffffffff167f8be0079c531659141344cd1fd0a4f28419497f9722a3daafe3b4186f6b6457e060405160405180910390a35050565b8173ffffffffffffffffffffffffffffffffffffffff168373ffffffffffffffffffffffffffffffffffffffff1614156127e4576040517f08c379a00000000000000000000000000000000000000000000000000000000081526004016127db90614413565b60405180910390fd5b80600560008573ffffffffffffffffffffffffffffffffffffffff1673ffffffffffffffffffffffffffffffffffffffff16815260200190815260200160002060008473ffffffffffffffffffffffffffffffffffffffff1673ffffffffffffffffffffffffffffffffffffffff16815260200190815260200160002060006101000a81548160ff0219169083151502179055508173ffffffffffffffffffffffffffffffffffffffff168373ffffffffffffffffffffffffffffffffffffffff167f17307eab39ab6107e8899845ad3d59bd9653f200f220920489ca2b5937696c31836040516128d591906141de565b60405180910390a3505050565b6128ed8484846121d6565b6128f984848484612dff565b612938576040517f08c379a000000000000000000000000000000000000000000000000000000000815260040161292f90614333565b60405180910390fd5b50505050565b606060008251141561296157604051806020016040528060008152509050612a9d565b6000604051806060016040528060408152602001615b2d60409139905060006003600285516129909190614682565b61299a91906146d8565b60046129a69190614709565b67ffffffffffffffff8111156129bf576129be614a32565b5b6040519080825280601f01601f1916602001820160405280156129f15781602001600182028036833780820191505090505b509050600182016020820185865187015b80821015612a5d576003820191508151603f8160121c168501518453600184019350603f81600c1c168501518453600184019350603f8160061c168501518453600184019350603f8116850151845360018401935050612a02565b5050600386510660018114612a795760028114612a8c57612a94565b603d6001830353603d6002830353612a94565b603d60018303535b50505080925050505b919050565b612aaf8785858585611125565b612ab9863061255a565b60016011600089815260200190815260200160002060006101000a81548160ff021916908315150217905550600c60009054906101000a900473ffffffffffffffffffffffffffffffffffffffff1673ffffffffffffffffffffffffffffffffffffffff166354b06ae387876040518363ffffffff1660e01b8152600401612b429291906145ae565b600060405180830381600087803b158015612b5c57600080fd5b505af1158015612b70573d6000803e3d6000fd5b50505050612b7d8661243d565b50505050505050565b60008073ffffffffffffffffffffffffffffffffffffffff166002600084815260200190815260200160002060009054906101000a900473ffffffffffffffffffffffffffffffffffffffff1673ffffffffffffffffffffffffffffffffffffffff1614159050919050565b612bfd838383612f96565b505050565b505050565b600073ffffffffffffffffffffffffffffffffffffffff168273ffffffffffffffffffffffffffffffffffffffff161415612c77576040517f08c379a0000000000000000000000000000000000000000000000000000000008152600401612c6e90614473565b60405180910390fd5b612c8081612b86565b15612cc0576040517f08c379a0000000000000000000000000000000000000000000000000000000008152600401612cb7906143b3565b60405180910390fd5b612ccc60008383612bf2565b6001600360008473ffffffffffffffffffffffffffffffffffffffff1673ffffffffffffffffffffffffffffffffffffffff1681526020019081526020016000206000828254612d1c9190614682565b92505081905550816002600083815260200190815260200160002060006101000a81548173ffffffffffffffffffffffffffffffffffffffff021916908373ffffffffffffffffffffffffffffffffffffffff160217905550808273ffffffffffffffffffffffffffffffffffffffff16600073ffffffffffffffffffffffffffffffffffffffff167fddf252ad1be2c89b69c2b068fc378daa952ba7f163c4a11628f55a4df523b3ef60405160405180910390a4612ddd60008383612c02565b5050565b612dfb8282604051806020016040528060008152506130aa565b5050565b6000612e208473ffffffffffffffffffffffffffffffffffffffff16613105565b15612f89578373ffffffffffffffffffffffffffffffffffffffff1663150b7a02612e49611ec5565b8786866040518563ffffffff1660e01b8152600401612e6b9493929190614192565b602060405180830381600087803b158015612e8557600080fd5b505af1925050508015612eb657506040513d601f19601f82011682018060405250810190612eb39190613847565b60015b612f39573d8060008114612ee6576040519150601f19603f3d011682016040523d82523d6000602084013e612eeb565b606091505b50600081511415612f31576040517f08c379a0000000000000000000000000000000000000000000000000000000008152600401612f2890614333565b60405180910390fd5b805181602001fd5b63150b7a0260e01b7bffffffffffffffffffffffffffffffffffffffffffffffffffffffff1916817bffffffffffffffffffffffffffffffffffffffffffffffffffffffff191614915050612f8e565b600190505b949350505050565b612fa1838383613128565b600073ffffffffffffffffffffffffffffffffffffffff168373ffffffffffffffffffffffffffffffffffffffff161415612fe457612fdf8161312d565b613023565b8173ffffffffffffffffffffffffffffffffffffffff168373ffffffffffffffffffffffffffffffffffffffff1614613022576130218382613176565b5b5b600073ffffffffffffffffffffffffffffffffffffffff168273ffffffffffffffffffffffffffffffffffffffff16141561306657613061816132e3565b6130a5565b8273ffffffffffffffffffffffffffffffffffffffff168273ffffffffffffffffffffffffffffffffffffffff16146130a4576130a382826133b4565b5b5b505050565b6130b48383612c07565b6130c16000848484612dff565b613100576040517f08c379a00000000000000000000000000000000000000000000000000000000081526004016130f790614333565b60405180910390fd5b505050565b6000808273ffffffffffffffffffffffffffffffffffffffff163b119050919050565b505050565b600980549050600a600083815260200190815260200160002081905550600981908060018154018082558091505060019003906000526020600020016000909190919091505550565b6000600161318384611665565b61318d9190614763565b9050600060086000848152602001908152602001600020549050818114613272576000600760008673ffffffffffffffffffffffffffffffffffffffff1673ffffffffffffffffffffffffffffffffffffffff168152602001908152602001600020600084815260200190815260200160002054905080600760008773ffffffffffffffffffffffffffffffffffffffff1673ffffffffffffffffffffffffffffffffffffffff168152602001908152602001600020600084815260200190815260200160002081905550816008600083815260200190815260200160002081905550505b6008600084815260200190815260200160002060009055600760008573ffffffffffffffffffffffffffffffffffffffff1673ffffffffffffffffffffffffffffffffffffffff16815260200190815260200160002060008381526020019081526020016000206000905550505050565b600060016009805490506132f79190614763565b90506000600a600084815260200190815260200160002054905060006009838154811061332757613326614a03565b5b90600052602060002001549050806009838154811061334957613348614a03565b5b906000526020600020018190555081600a600083815260200190815260200160002081905550600a6000858152602001908152602001600020600090556009805480613398576133976149d4565b5b6001900381819060005260206000200160009055905550505050565b60006133bf83611665565b905081600760008573ffffffffffffffffffffffffffffffffffffffff1673ffffffffffffffffffffffffffffffffffffffff168152602001908152602001600020600083815260200190815260200160002081905550806008600084815260200190815260200160002081905550505050565b600061344661344184614603565b6145de565b90508281526020810184848401111561346257613461614a66565b5b61346d84828561486a565b509392505050565b600061348861348384614603565b6145de565b9050828152602081018484840111156134a4576134a3614a66565b5b6134af848285614879565b509392505050565b6000813590506134c68161529f565b92915050565b6000815190506134db8161529f565b92915050565b6000813590506134f0816152b6565b92915050565b600081519050613505816152b6565b92915050565b60008135905061351a816152cd565b92915050565b60008135905061352f816152e4565b92915050565b600081519050613544816152e4565b92915050565b600082601f83011261355f5761355e614a61565b5b813561356f848260208601613433565b91505092915050565b600082601f83011261358d5761358c614a61565b5b815161359d848260208601613475565b91505092915050565b6000813590506135b5816152fb565b92915050565b6000813590506135ca81615312565b92915050565b6000602082840312156135e6576135e5614a70565b5b60006135f4848285016134b7565b91505092915050565b60006020828403121561361357613612614a70565b5b6000613621848285016134cc565b91505092915050565b6000806040838503121561364157613640614a70565b5b600061364f858286016134b7565b9250506020613660858286016134b7565b9150509250929050565b60008060006060848603121561368357613682614a70565b5b6000613691868287016134b7565b93505060206136a2868287016134b7565b92505060406136b3868287016135a6565b9150509250925092565b600080600080608085870312156136d7576136d6614a70565b5b60006136e5878288016134b7565b94505060206136f6878288016134b7565b9350506040613707878288016135a6565b925050606085013567ffffffffffffffff81111561372857613727614a6b565b5b6137348782880161354a565b91505092959194509250565b6000806040838503121561375757613756614a70565b5b6000613765858286016134b7565b9250506020613776858286016134e1565b9150509250929050565b6000806040838503121561379757613796614a70565b5b60006137a5858286016134b7565b92505060206137b6858286016135a6565b9150509250929050565b6000602082840312156137d6576137d5614a70565b5b60006137e4848285016134f6565b91505092915050565b60006020828403121561380357613802614a70565b5b60006138118482850161350b565b91505092915050565b6000602082840312156138305761382f614a70565b5b600061383e84828501613520565b91505092915050565b60006020828403121561385d5761385c614a70565b5b600061386b84828501613535565b91505092915050565b60006020828403121561388a57613889614a70565b5b600082015167ffffffffffffffff8111156138a8576138a7614a6b565b5b6138b484828501613578565b91505092915050565b6000602082840312156138d3576138d2614a70565b5b60006138e1848285016135a6565b91505092915050565b600080600080600060a0868803121561390657613905614a70565b5b6000613914888289016135a6565b95505060206139258882890161350b565b9450506040613936888289016135bb565b93505060606139478882890161350b565b92505060806139588882890161350b565b9150509295509295909350565b6000806040838503121561397c5761397b614a70565b5b600061398a858286016135a6565b925050602083013567ffffffffffffffff8111156139ab576139aa614a6b565b5b6139b78582860161354a565b9150509250929050565b600080604083850312156139d8576139d7614a70565b5b60006139e6858286016135a6565b92505060206139f7858286016135a6565b9150509250929050565b60008060008060008060c08789031215613a1e57613a1d614a70565b5b6000613a2c89828a016135a6565b9650506020613a3d89828a016135a6565b9550506040613a4e89828a0161350b565b9450506060613a5f89828a016135bb565b9350506080613a7089828a0161350b565b92505060a0613a8189828a0161350b565b9150509295509295509295565b600080600080600080600060e0888a031215613aad57613aac614a70565b5b6000613abb8a828b016135a6565b9750506020613acc8a828b016135a6565b965050604088013567ffffffffffffffff811115613aed57613aec614a6b565b5b613af98a828b0161354a565b9550506060613b0a8a828b0161350b565b9450506080613b1b8a828b016135bb565b93505060a0613b2c8a828b0161350b565b92505060c0613b3d8a828b0161350b565b91505092959891949750929550565b613b5581614797565b82525050565b613b6c613b6782614797565b61490f565b82525050565b613b7b816147a9565b82525050565b613b8a816147b5565b82525050565b613ba1613b9c826147b5565b614921565b82525050565b6000613bb282614634565b613bbc818561464a565b9350613bcc818560208601614879565b613bd581614a75565b840191505092915050565b6000613beb82614634565b613bf5818561465b565b9350613c05818560208601614879565b80840191505092915050565b613c1a81614822565b82525050565b613c2981614834565b82525050565b6000613c3a8261463f565b613c448185614666565b9350613c54818560208601614879565b613c5d81614a75565b840191505092915050565b6000613c738261463f565b613c7d8185614677565b9350613c8d818560208601614879565b80840191505092915050565b6000613ca6603083614666565b9150613cb182614a93565b604082019050919050565b6000613cc9602e83614666565b9150613cd482614ae2565b604082019050919050565b6000613cec601c83614677565b9150613cf782614b31565b601c82019050919050565b6000613d0f602b83614666565b9150613d1a82614b5a565b604082019050919050565b6000613d32603283614666565b9150613d3d82614ba9565b604082019050919050565b6000613d55601e83614666565b9150613d6082614bf8565b602082019050919050565b6000613d78602683614666565b9150613d8382614c21565b604082019050919050565b6000613d9b602583614666565b9150613da682614c70565b604082019050919050565b6000613dbe601c83614666565b9150613dc982614cbf565b602082019050919050565b6000613de1603783614677565b9150613dec82614ce8565b603782019050919050565b6000613e04602083614666565b9150613e0f82614d37565b602082019050919050565b6000613e27602483614666565b9150613e3282614d60565b604082019050919050565b6000613e4a601983614666565b9150613e5582614daf565b602082019050919050565b6000613e6d603183614677565b9150613e7882614dd8565b603182019050919050565b6000613e90602983614666565b9150613e9b82614e27565b604082019050919050565b6000613eb3603e83614666565b9150613ebe82614e76565b604082019050919050565b6000613ed6602083614666565b9150613ee182614ec5565b602082019050919050565b6000613ef9600383614677565b9150613f0482614eee565b600382019050919050565b6000613f1c602083614666565b9150613f2782614f17565b602082019050919050565b6000613f3f60cb83614677565b9150613f4a82614f40565b60cb82019050919050565b6000613f62601883614666565b9150613f6d8261504d565b602082019050919050565b6000613f85602183614666565b9150613f9082615076565b604082019050919050565b6000613fa8604183614666565b9150613fb3826150c5565b606082019050919050565b6000613fcb601d83614677565b9150613fd68261513a565b601d82019050919050565b6000613fee602c83614666565b9150613ff982615163565b604082019050919050565b6000614011603c83614666565b915061401c826151b2565b604082019050919050565b6000614034602b83614666565b915061403f82615201565b604082019050919050565b6000614057602e83614666565b915061406282615250565b604082019050919050565b6140768161480b565b82525050565b61408d6140888261480b565b61493d565b82525050565b61409c81614815565b82525050565b60006140ae8285613b5b565b6014820191506140be828461407c565b6020820191508190509392505050565b60006140d982613cdf565b91506140e58284613b90565b60208201915081905092915050565b60006140ff82613f32565b915061410b8286613be0565b915061411682613dd4565b91506141228285613c68565b915061412d82613e60565b91506141398284613b5b565b60148201915061414882613eec565b9150819050949350505050565b600061416082613fbe565b915061416c8284613c68565b915081905092915050565b600060208201905061418c6000830184613b4c565b92915050565b60006080820190506141a76000830187613b4c565b6141b46020830186613b4c565b6141c1604083018561406d565b81810360608301526141d38184613ba7565b905095945050505050565b60006020820190506141f36000830184613b72565b92915050565b600060208201905061420e6000830184613b81565b92915050565b60006080820190506142296000830187613b81565b6142366020830186614093565b6142436040830185613b81565b6142506060830184613b81565b95945050505050565b600060208201905081810360008301526142738184613ba7565b905092915050565b60006020820190506142906000830184613c11565b92915050565b60006020820190506142ab6000830184613c20565b92915050565b600060208201905081810360008301526142cb8184613c2f565b905092915050565b600060208201905081810360008301526142ec81613c99565b9050919050565b6000602082019050818103600083015261430c81613cbc565b9050919050565b6000602082019050818103600083015261432c81613d02565b9050919050565b6000602082019050818103600083015261434c81613d25565b9050919050565b6000602082019050818103600083015261436c81613d48565b9050919050565b6000602082019050818103600083015261438c81613d6b565b9050919050565b600060208201905081810360008301526143ac81613d8e565b9050919050565b600060208201905081810360008301526143cc81613db1565b9050919050565b600060208201905081810360008301526143ec81613df7565b9050919050565b6000602082019050818103600083015261440c81613e1a565b9050919050565b6000602082019050818103600083015261442c81613e3d565b9050919050565b6000602082019050818103600083015261444c81613e83565b9050919050565b6000602082019050818103600083015261446c81613ea6565b9050919050565b6000602082019050818103600083015261448c81613ec9565b9050919050565b600060208201905081810360008301526144ac81613f0f565b9050919050565b600060208201905081810360008301526144cc81613f55565b9050919050565b600060208201905081810360008301526144ec81613f78565b9050919050565b6000602082019050818103600083015261450c81613f9b565b9050919050565b6000602082019050818103600083015261452c81613fe1565b9050919050565b6000602082019050818103600083015261454c81614004565b9050919050565b6000602082019050818103600083015261456c81614027565b9050919050565b6000602082019050818103600083015261458c8161404a565b9050919050565b60006020820190506145a8600083018461406d565b92915050565b60006040820190506145c3600083018561406d565b81810360208301526145d58184613ba7565b90509392505050565b60006145e86145f9565b90506145f482826148de565b919050565b6000604051905090565b600067ffffffffffffffff82111561461e5761461d614a32565b5b61462782614a75565b9050602081019050919050565b600081519050919050565b600081519050919050565b600082825260208201905092915050565b600081905092915050565b600082825260208201905092915050565b600081905092915050565b600061468d8261480b565b91506146988361480b565b9250827fffffffffffffffffffffffffffffffffffffffffffffffffffffffffffffffff038211156146cd576146cc614947565b5b828201905092915050565b60006146e38261480b565b91506146ee8361480b565b9250826146fe576146fd614976565b5b828204905092915050565b60006147148261480b565b915061471f8361480b565b9250817fffffffffffffffffffffffffffffffffffffffffffffffffffffffffffffffff048311821515161561475857614757614947565b5b828202905092915050565b600061476e8261480b565b91506147798361480b565b92508282101561478c5761478b614947565b5b828203905092915050565b60006147a2826147eb565b9050919050565b60008115159050919050565b6000819050919050565b60007fffffffff0000000000000000000000000000000000000000000000000000000082169050919050565b600073ffffffffffffffffffffffffffffffffffffffff82169050919050565b6000819050919050565b600060ff82169050919050565b600061482d82614846565b9050919050565b600061483f82614846565b9050919050565b600061485182614858565b9050919050565b6000614863826147eb565b9050919050565b82818337600083830152505050565b60005b8381101561489757808201518184015260208101905061487c565b838111156148a6576000848401525b50505050565b600060028204905060018216806148c457607f821691505b602082108114156148d8576148d76149a5565b5b50919050565b6148e782614a75565b810181811067ffffffffffffffff8211171561490657614905614a32565b5b80604052505050565b600061491a8261492b565b9050919050565b6000819050919050565b600061493682614a86565b9050919050565b6000819050919050565b7f4e487b7100000000000000000000000000000000000000000000000000000000600052601160045260246000fd5b7f4e487b7100000000000000000000000000000000000000000000000000000000600052601260045260246000fd5b7f4e487b7100000000000000000000000000000000000000000000000000000000600052602260045260246000fd5b7f4e487b7100000000000000000000000000000000000000000000000000000000600052603160045260246000fd5b7f4e487b7100000000000000000000000000000000000000000000000000000000600052603260045260246000fd5b7f4e487b7100000000000000000000000000000000000000000000000000000000600052604160045260246000fd5b600080fd5b600080fd5b600080fd5b600080fd5b6000601f19601f8301169050919050565b60008160601b9050919050565b7f4f6e6c792074686520726f7574696e6720636f6e74726163742063616e20636160008201527f6c6c20746869732066756e6374696f6e00000000000000000000000000000000602082015250565b7f546865726520617265206e6f20756e6d696e74656420726f7574656420746f6b60008201527f656e2069647320746f206d696e74000000000000000000000000000000000000602082015250565b7f19457468657265756d205369676e6564204d6573736167653a0a333200000000600082015250565b7f455243373231456e756d657261626c653a206f776e657220696e646578206f7560008201527f74206f6620626f756e6473000000000000000000000000000000000000000000602082015250565b7f4552433732313a207472616e7366657220746f206e6f6e20455243373231526560008201527f63656976657220696d706c656d656e7465720000000000000000000000000000602082015250565b7f596f75206d757374207061792065786163746c79206d696e7420636f73740000600082015250565b7f4f776e61626c653a206e6577206f776e657220697320746865207a65726f206160008201527f6464726573730000000000000000000000000000000000000000000000000000602082015250565b7f4552433732313a207472616e736665722066726f6d20696e636f72726563742060008201527f6f776e6572000000000000000000000000000000000000000000000000000000602082015250565b7f4552433732313a20746f6b656e20616c7265616479206d696e74656400000000600082015250565b7f222c2261747472696275746573223a205b7b2274726169745f74797065223a2060008201527f225075626c6963204b6579222c202276616c7565223a20000000000000000000602082015250565b7f5468697320504b5020686173206e6f74206265656e20726f7574656420796574600082015250565b7f4552433732313a207472616e7366657220746f20746865207a65726f2061646460008201527f7265737300000000000000000000000000000000000000000000000000000000602082015250565b7f4552433732313a20617070726f766520746f2063616c6c657200000000000000600082015250565b7f7d2c207b2274726169745f74797065223a20224554482057616c6c657420416460008201527f6472657373222c202276616c7565223a20000000000000000000000000000000602082015250565b7f4552433732313a2061646472657373207a65726f206973206e6f74206120766160008201527f6c6964206f776e65720000000000000000000000000000000000000000000000602082015250565b7f4552433732313a20617070726f76652063616c6c6572206973206e6f7420746f60008201527f6b656e206f776e6572206e6f7220617070726f76656420666f7220616c6c0000602082015250565b7f4552433732313a206d696e7420746f20746865207a65726f2061646472657373600082015250565b7f7d5d7d0000000000000000000000000000000000000000000000000000000000600082015250565b7f4f776e61626c653a2063616c6c6572206973206e6f7420746865206f776e6572600082015250565b7f7b226e616d65223a20224c69742050726f746f636f6c2050726f6772616d6d6160008201527f626c65204b65792050616972222c20226465736372697074696f6e223a20225460208201527f686973204e465420656e7469746c65732074686520686f6c64657220746f207560408201527f73652061204c69742050726f746f636f6c20504b502c20616e6420746f20677260608201527f616e742061636365737320746f206f7468657220757365727320616e64204c6960808201527f7420416374696f6e7320746f20757365207468697320504b50222c2022696d6160a08201527f67655f64617461223a202200000000000000000000000000000000000000000060c082015250565b7f4552433732313a20696e76616c696420746f6b656e2049440000000000000000600082015250565b7f4552433732313a20617070726f76616c20746f2063757272656e74206f776e6560008201527f7200000000000000000000000000000000000000000000000000000000000000602082015250565b7f5468697320667265654d696e7420776173206e6f74207369676e65642062792060008201527f667265654d696e745369676e65722e2020486f7720656d626172617373696e6760208201527f2e00000000000000000000000000000000000000000000000000000000000000604082015250565b7f646174613a6170706c69636174696f6e2f6a736f6e3b6261736536342c000000600082015250565b7f455243373231456e756d657261626c653a20676c6f62616c20696e646578206f60008201527f7574206f6620626f756e64730000000000000000000000000000000000000000602082015250565b7f546865206d736748617368206973206e6f7420612068617368206f662074686560008201527f20746f6b656e49642e20204578706c61696e20796f757273656c662100000000602082015250565b7f546869732066726565206d696e742049442068617320616c726561647920626560008201527f656e2072656465656d6564000000000000000000000000000000000000000000602082015250565b7f4552433732313a2063616c6c6572206973206e6f7420746f6b656e206f776e6560008201527f72206e6f7220617070726f766564000000000000000000000000000000000000602082015250565b6152a881614797565b81146152b357600080fd5b50565b6152bf816147a9565b81146152ca57600080fd5b50565b6152d6816147b5565b81146152e157600080fd5b50565b6152ed816147bf565b81146152f857600080fd5b50565b6153048161480b565b811461530f57600080fd5b50565b61531b81614815565b811461532657600080fd5b5056fe3c73766720786d6c6e733d27687474703a2f2f7777772e77332e6f72672f323030302f737667272076696577426f783d2730203020313030203130302720786d6c6e733a763d2768747470733a2f2f76656374612e696f2f6e616e6f273e3c7061746820643d274d35302e362037332e33632d31372e372d2e312d31392d31362e362d31372e352d32302e342030203020312e3120382e382031312e3120362e3620392e392d322e3220342e392d31372e3120342e372d31372e362e312e3120312e3920312e3820332e3420342e3120312e3620322e34203220362e3420312e352031302d2e3520332e352d2e3220382e3420362e3220362e3620372e392d322e3220372e322d31342e3620372e322d31342e3620332e3620342e3120332e392032352e342d31362e362032352e337a272066696c6c3d2723666564343238272f3e3c7061746820643d274d36342e312033382e36632d2e3420322e392e3620382e352e322031322d2e3320322e392d312e3820352e312d332e3120352e372d312e322e362d32202e322d322d2e382d2e312d312e312e372d33202e362d342e362d2e312d322d312e332d342e332d312e332d342e336c2e372d312e332e362e396132352e39332032352e3933203020302031202e3820312e3373312e322d372e3420332e332d31312e3663312e352d3320352e322d342e3220352e342d342e332d322e3920312e372d342e3720332e342d352e3220377a272066696c6c3d2723633630343034272f3e3c7061746820643d274d36322033372e366c2d312e3320342e32632d2e3620312e382d312e3520332e362d312e3520332e366c2d2e3720312e33732d312d322d322e312d332e356c2d322e332d332e31732e322d2e362e342d312e366c2e392e37732e362d322e312e372d352e32632e312d322e362d2e372d352e362d2e372d352e362031202e3820322e3620322e3320332e3720332e3820312e3420312e3720322e3920352e3420322e3920352e347a272066696c6c3d2723613730633063272f3e3c7061746820643d274d34342e33203530632d2e312e322d3320342e382d372e3420322e322d2e382d2e352d312e342d312d312e382d312e372d322e362d34202e372d31302e382e382d31312e32762e312e312e31632d2e3320312e372d312e3320382e3620312e332031302e352e312e312e322e312e332e322e322e312e332e322e352e3320322e3420312e3120342e332e3520352e342030202e312030202e312d2e312e322d2e312e342d2e332e362d2e352e372d2e357a272066696c6c3d2723613430613061272f3e3c7061746820643d274d35362e32203334632d2e3120332e312d2e3720352e322d2e3720352e326c2d2e392d2e37632e332d312e312e362d322e372e372d342e322e332d332e332d2e372d362e352d2e372d362e35732e332e332e382e37632e312030202e3920322e392e3820352e357a4d34342e33203530632d2e3120302d2e332e322d2e372e352d2e3120302d2e312e312d2e322e312d312e312e352d3320312e312d352e3420302d2e322d2e312d2e332d2e322d2e352d2e332d2e312d2e312d2e322d2e312d2e332d2e322d322e362d312e392d312e362d382e392d312e332d31302e352d2e3120312e322d2e3520352e3520312e3320382e33203220332e3220372e3120322e3120372e3120322e317a6d32372d342e35632d322e342d342e392d322e342d382e372d322e342d31302e3520302d312e3920312e332d332e3420312e332d332e34732d2e3420302d2e392e31632d312e312e332d332e332e382d342e3320312e372d322e3320322d322e3920342e322d322e3920342e32732d2e3720322e342d312e3320342e322d312e3520332e362d312e3520332e366c2e362e396132352e39332032352e3933203020302031202e3820312e335336312e392034302e3220363420333663312e352d3320352e322d342e3220352e342d342e332d3320312e352d342e3820332e322d352e3220362e392d2e3420322e392e3620382e352e322031322d2e3320322e392d312e3820352e312d332e3120352e372d312e322e362d32202e322d322d2e382d2e312d312e312e372d33202e362d342e362d2e312d322d312e332d342e332d312e332d342e33732d312d322d322e312d332e354c35342e32203430732d342d332e392d332e322d392e38632e362d3520342e382d382e3120352d382e332d2e342e312d3620312e332d392e3420362e332d322e3820342e312d332e3220382e332d312e382031332e3920312e3220352d2e3420372e382d2e3420372e382d2e312e322d3320342e382d372e3420322e322d2e382d2e352d312e342d312d312e382d312e372d322e362d34202e372d31302e382e382d31312e32203020302d392e3320372e312d392e332031362e34203020392e3820372e382032322e342032332e342032322e3420313820302032332e322d31352e332032332e352d3230202e332d34202e322d372e352d322e332d31322e357a4d35302e362037332e33632d31372e372d2e312d31392d31362e362d31372e352d32302e342030203020312e3120382e382031312e3120362e3620392e392d322e3220342e392d31372e3120342e372d31372e362e312e3120312e3920312e3820332e3420342e3120312e3620322e34203220362e3420312e352031302d2e3520332e352d2e3220382e3420362e3220362e3620372e392d322e3220372e322d31342e3620372e322d31342e3620332e3620342e3120332e392032352e342d31362e362032352e337a272066696c6c3d2723663132643264272f3e3c2f7376673e4142434445464748494a4b4c4d4e4f505152535455565758595a6162636465666768696a6b6c6d6e6f707172737475767778797a303132333435363738392b2fa2646970667358221220f05c395da33b79b935177ab89212fa8188755b8baecc24aa9526e87699711e9b64736f6c63430008070033",
  "linkReferences": {},
  "deployedLinkReferences": {}
}