{
  "_format": "hh-sol-artifact-1",
  "contractName": "PKPPermissions",
  "sourceName": "contracts/PKPPermissions.sol",
  "abi": [
    {
      "inputs": [
        {
          "internalType": "address",
          "name": "_pkpNft",
          "type": "address"
        },
        {
          "internalType": "address",
          "name": "_router",
          "type": "address"
        }
      ],
      "stateMutability": "nonpayable",
      "type": "constructor"
    },
    {
      "anonymous": false,
      "inputs": [
        {
          "indexed": true,
          "internalType": "address",
          "name": "previousOwner",
          "type": "address"
        },
        {
          "indexed": true,
          "internalType": "address",
          "name": "newOwner",
          "type": "address"
        }
      ],
      "name": "OwnershipTransferred",
      "type": "event"
    },
    {
      "anonymous": false,
      "inputs": [
        {
          "indexed": true,
          "internalType": "uint256",
          "name": "tokenId",
          "type": "uint256"
        },
        {
          "indexed": false,
          "internalType": "bytes32",
          "name": "ipfsId",
          "type": "bytes32"
        }
      ],
      "name": "PermittedActionAdded",
      "type": "event"
    },
    {
      "anonymous": false,
      "inputs": [
        {
          "indexed": true,
          "internalType": "uint256",
          "name": "tokenId",
          "type": "uint256"
        },
        {
          "indexed": false,
          "internalType": "bytes32",
          "name": "ipfsId",
          "type": "bytes32"
        }
      ],
      "name": "PermittedActionRemoved",
      "type": "event"
    },
    {
      "anonymous": false,
      "inputs": [
        {
          "indexed": true,
          "internalType": "uint256",
          "name": "tokenId",
          "type": "uint256"
        },
        {
          "indexed": false,
          "internalType": "address",
          "name": "user",
          "type": "address"
        }
      ],
      "name": "PermittedAddressAdded",
      "type": "event"
    },
    {
      "anonymous": false,
      "inputs": [
        {
          "indexed": true,
          "internalType": "uint256",
          "name": "tokenId",
          "type": "uint256"
        },
        {
          "indexed": false,
          "internalType": "address",
          "name": "user",
          "type": "address"
        }
      ],
      "name": "PermittedAddressRemoved",
      "type": "event"
    },
    {
      "anonymous": false,
      "inputs": [
        {
          "indexed": true,
          "internalType": "uint256",
          "name": "tokenId",
          "type": "uint256"
        },
        {
          "indexed": false,
          "internalType": "uint256",
          "name": "authMethodId",
          "type": "uint256"
        }
      ],
      "name": "PermittedAuthMethodAdded",
      "type": "event"
    },
    {
      "anonymous": false,
      "inputs": [
        {
          "indexed": true,
          "internalType": "uint256",
          "name": "tokenId",
          "type": "uint256"
        },
        {
          "indexed": false,
          "internalType": "uint256",
          "name": "authMethodId",
          "type": "uint256"
        }
      ],
      "name": "PermittedAuthMethodRemoved",
      "type": "event"
    },
    {
      "inputs": [
        {
          "internalType": "uint256",
          "name": "tokenId",
          "type": "uint256"
        },
        {
          "internalType": "bytes",
          "name": "ipfsCID",
          "type": "bytes"
        }
      ],
      "name": "addPermittedAction",
      "outputs": [],
      "stateMutability": "nonpayable",
      "type": "function"
    },
    {
      "inputs": [
        {
          "internalType": "uint256",
          "name": "tokenId",
          "type": "uint256"
        },
        {
          "internalType": "address",
          "name": "user",
          "type": "address"
        }
      ],
      "name": "addPermittedAddress",
      "outputs": [],
      "stateMutability": "nonpayable",
      "type": "function"
    },
    {
      "inputs": [
        {
          "internalType": "uint256",
          "name": "tokenId",
          "type": "uint256"
        },
        {
          "internalType": "uint256",
          "name": "authMethodType",
          "type": "uint256"
        },
        {
          "internalType": "bytes",
          "name": "userId",
          "type": "bytes"
        },
        {
          "internalType": "bytes",
          "name": "userPubkey",
          "type": "bytes"
        }
      ],
      "name": "addPermittedAuthMethod",
      "outputs": [],
      "stateMutability": "nonpayable",
      "type": "function"
    },
    {
      "inputs": [
        {
          "internalType": "uint256",
          "name": "",
          "type": "uint256"
        }
      ],
      "name": "authMethods",
      "outputs": [
        {
          "internalType": "uint256",
          "name": "authMethodType",
          "type": "uint256"
        },
        {
          "internalType": "bytes",
          "name": "userId",
          "type": "bytes"
        },
        {
          "internalType": "bytes",
          "name": "userPubkey",
          "type": "bytes"
        }
      ],
      "stateMutability": "view",
      "type": "function"
    },
    {
      "inputs": [
        {
          "internalType": "uint256",
          "name": "authMethodType",
          "type": "uint256"
        },
        {
          "internalType": "bytes",
          "name": "userId",
          "type": "bytes"
        }
      ],
      "name": "getAuthMethodId",
      "outputs": [
        {
          "internalType": "uint256",
          "name": "",
          "type": "uint256"
        }
      ],
      "stateMutability": "pure",
      "type": "function"
    },
    {
      "inputs": [
        {
          "internalType": "uint256",
          "name": "tokenId",
          "type": "uint256"
        }
      ],
      "name": "getEthAddress",
      "outputs": [
        {
          "internalType": "address",
          "name": "",
          "type": "address"
        }
      ],
      "stateMutability": "view",
      "type": "function"
    },
    {
      "inputs": [
        {
          "internalType": "uint256",
          "name": "tokenId",
          "type": "uint256"
        }
      ],
      "name": "getPermittedActions",
      "outputs": [
        {
          "internalType": "bytes[]",
          "name": "",
          "type": "bytes[]"
        }
      ],
      "stateMutability": "view",
      "type": "function"
    },
    {
      "inputs": [
        {
          "internalType": "uint256",
          "name": "tokenId",
          "type": "uint256"
        }
      ],
      "name": "getPermittedAddresses",
      "outputs": [
        {
          "internalType": "address[]",
          "name": "",
          "type": "address[]"
        }
      ],
      "stateMutability": "view",
      "type": "function"
    },
    {
      "inputs": [
        {
          "internalType": "uint256",
          "name": "tokenId",
          "type": "uint256"
        }
      ],
      "name": "getPermittedAuthMethods",
      "outputs": [
        {
          "components": [
            {
              "internalType": "uint256",
              "name": "authMethodType",
              "type": "uint256"
            },
            {
              "internalType": "bytes",
              "name": "userId",
              "type": "bytes"
            },
            {
              "internalType": "bytes",
              "name": "userPubkey",
              "type": "bytes"
            }
          ],
          "internalType": "struct PKPPermissions.AuthMethod[]",
          "name": "",
          "type": "tuple[]"
        }
      ],
      "stateMutability": "view",
      "type": "function"
    },
    {
      "inputs": [
        {
          "internalType": "uint256",
          "name": "tokenId",
          "type": "uint256"
        }
      ],
      "name": "getPubkey",
      "outputs": [
        {
          "internalType": "bytes",
          "name": "",
          "type": "bytes"
        }
      ],
      "stateMutability": "view",
      "type": "function"
    },
    {
      "inputs": [
        {
          "internalType": "uint256",
          "name": "authMethodType",
          "type": "uint256"
        },
        {
          "internalType": "bytes",
          "name": "userId",
          "type": "bytes"
        }
      ],
      "name": "getTokenIdsForAuthMethod",
      "outputs": [
        {
          "internalType": "uint256[]",
          "name": "",
          "type": "uint256[]"
        }
      ],
      "stateMutability": "view",
      "type": "function"
    },
    {
      "inputs": [
        {
          "internalType": "uint256",
          "name": "authMethodType",
          "type": "uint256"
        },
        {
          "internalType": "bytes",
          "name": "userId",
          "type": "bytes"
        }
      ],
      "name": "getUserPubkeyForAuthMethod",
      "outputs": [
        {
          "internalType": "bytes",
          "name": "",
          "type": "bytes"
        }
      ],
      "stateMutability": "view",
      "type": "function"
    },
    {
      "inputs": [
        {
          "internalType": "bytes32",
          "name": "",
          "type": "bytes32"
        }
      ],
      "name": "ipfsIds",
      "outputs": [
        {
          "internalType": "bytes",
          "name": "",
          "type": "bytes"
        }
      ],
      "stateMutability": "view",
      "type": "function"
    },
    {
      "inputs": [
        {
          "internalType": "uint256",
          "name": "tokenId",
          "type": "uint256"
        },
        {
          "internalType": "bytes",
          "name": "ipfsCID",
          "type": "bytes"
        }
      ],
      "name": "isPermittedAction",
      "outputs": [
        {
          "internalType": "bool",
          "name": "",
          "type": "bool"
        }
      ],
      "stateMutability": "view",
      "type": "function"
    },
    {
      "inputs": [
        {
          "internalType": "uint256",
          "name": "tokenId",
          "type": "uint256"
        },
        {
          "internalType": "address",
          "name": "user",
          "type": "address"
        }
      ],
      "name": "isPermittedAddress",
      "outputs": [
        {
          "internalType": "bool",
          "name": "",
          "type": "bool"
        }
      ],
      "stateMutability": "view",
      "type": "function"
    },
    {
      "inputs": [
        {
          "internalType": "uint256",
          "name": "tokenId",
          "type": "uint256"
        },
        {
          "internalType": "uint256",
          "name": "authMethodType",
          "type": "uint256"
        },
        {
          "internalType": "bytes",
          "name": "userId",
          "type": "bytes"
        },
        {
          "internalType": "bytes",
          "name": "userPubkey",
          "type": "bytes"
        }
      ],
      "name": "isPermittedAuthMethod",
      "outputs": [
        {
          "internalType": "bool",
          "name": "",
          "type": "bool"
        }
      ],
      "stateMutability": "view",
      "type": "function"
    },
    {
      "inputs": [],
      "name": "owner",
      "outputs": [
        {
          "internalType": "address",
          "name": "",
          "type": "address"
        }
      ],
      "stateMutability": "view",
      "type": "function"
    },
    {
      "inputs": [],
      "name": "pkpNFT",
      "outputs": [
        {
          "internalType": "contract PKPNFT",
          "name": "",
          "type": "address"
        }
      ],
      "stateMutability": "view",
      "type": "function"
    },
    {
      "inputs": [
        {
          "internalType": "uint256",
          "name": "tokenId",
          "type": "uint256"
        },
        {
          "internalType": "bytes",
          "name": "ipfsCID",
          "type": "bytes"
        }
      ],
      "name": "removePermittedAction",
      "outputs": [],
      "stateMutability": "nonpayable",
      "type": "function"
    },
    {
      "inputs": [
        {
          "internalType": "uint256",
          "name": "tokenId",
          "type": "uint256"
        },
        {
          "internalType": "address",
          "name": "user",
          "type": "address"
        }
      ],
      "name": "removePermittedAddress",
      "outputs": [],
      "stateMutability": "nonpayable",
      "type": "function"
    },
    {
      "inputs": [
        {
          "internalType": "uint256",
          "name": "tokenId",
          "type": "uint256"
        },
        {
          "internalType": "uint256",
          "name": "authMethodType",
          "type": "uint256"
        },
        {
          "internalType": "bytes",
          "name": "userId",
          "type": "bytes"
        }
      ],
      "name": "removePermittedAuthMethod",
      "outputs": [],
      "stateMutability": "nonpayable",
      "type": "function"
    },
    {
      "inputs": [],
      "name": "renounceOwnership",
      "outputs": [],
      "stateMutability": "nonpayable",
      "type": "function"
    },
    {
      "inputs": [],
      "name": "router",
      "outputs": [
        {
          "internalType": "contract PubkeyRouter",
          "name": "",
          "type": "address"
        }
      ],
      "stateMutability": "view",
      "type": "function"
    },
    {
      "inputs": [
        {
          "internalType": "address",
          "name": "newPkpNftAddress",
          "type": "address"
        }
      ],
      "name": "setPkpNftAddress",
      "outputs": [],
      "stateMutability": "nonpayable",
      "type": "function"
    },
    {
      "inputs": [
        {
          "internalType": "address",
          "name": "newRouterAddress",
          "type": "address"
        }
      ],
      "name": "setRouterAddress",
      "outputs": [],
      "stateMutability": "nonpayable",
      "type": "function"
    },
    {
      "inputs": [
        {
          "internalType": "address",
          "name": "newOwner",
          "type": "address"
        }
      ],
      "name": "transferOwnership",
      "outputs": [],
      "stateMutability": "nonpayable",
      "type": "function"
    }
  ],
  "bytecode": "0x60806040523480156200001157600080fd5b5060405162003998380380620039988339818101604052810190620000379190620001c4565b620000576200004b620000e160201b60201c565b620000e960201b60201c565b81600160006101000a81548173ffffffffffffffffffffffffffffffffffffffff021916908373ffffffffffffffffffffffffffffffffffffffff16021790555080600260006101000a81548173ffffffffffffffffffffffffffffffffffffffff021916908373ffffffffffffffffffffffffffffffffffffffff16021790555050506200025e565b600033905090565b60008060009054906101000a900473ffffffffffffffffffffffffffffffffffffffff169050816000806101000a81548173ffffffffffffffffffffffffffffffffffffffff021916908373ffffffffffffffffffffffffffffffffffffffff1602179055508173ffffffffffffffffffffffffffffffffffffffff168173ffffffffffffffffffffffffffffffffffffffff167f8be0079c531659141344cd1fd0a4f28419497f9722a3daafe3b4186f6b6457e060405160405180910390a35050565b600081519050620001be8162000244565b92915050565b60008060408385031215620001de57620001dd6200023f565b5b6000620001ee85828601620001ad565b92505060206200020185828601620001ad565b9150509250929050565b600062000218826200021f565b9050919050565b600073ffffffffffffffffffffffffffffffffffffffff82169050919050565b600080fd5b6200024f816200020b565b81146200025b57600080fd5b50565b61372a806200026e6000396000f3fe608060405234801561001057600080fd5b506004361061018c5760003560e01c80638da5cb5b116100de578063d41a327211610097578063f34f21ba11610071578063f34f21ba146104c7578063f887ea40146104f7578063fceb398314610515578063ffa2e953146105455761018c565b8063d41a32721461045f578063ef6fd8781461047b578063f2fde38b146104ab5761018c565b80638da5cb5b14610365578063a1afdc6f14610383578063abc541ae146103b3578063b997606f146103e3578063bb7a1070146103ff578063bd4986a01461042f5761018c565b80632657768b1161014b5780635521c452116101255780635521c452146102f357806366fc654114610323578063715018a61461033f5780637acf14cc146103495761018c565b80632657768b1461028957806341cb87fc146102bb57806354b06ae3146102d75761018c565b80618b4f146101915780630a60950d146101c157806314099f58146101f157806316ff923d14610221578063176354fd1461023d57806318a100c714610259575b600080fd5b6101ab60048036038101906101a69190612825565b610563565b6040516101b89190612e83565b60405180910390f35b6101db60048036038101906101d69190612865565b610672565b6040516101e89190612fd1565b60405180910390f35b61020b60048036038101906102069190612930565b6106a8565b6040516102189190612e83565b60405180910390f35b61023b60048036038101906102369190612930565b6108a5565b005b61025760048036038101906102529190612728565b610ae3565b005b610273600480360381019061026e9190612782565b610b2f565b6040516102809190612eb9565b60405180910390f35b6102a3600480360381019061029e91906127f8565b610bcf565b6040516102b29392919061301c565b60405180910390f35b6102d560048036038101906102d09190612728565b610d09565b005b6102f160048036038101906102ec9190612865565b610d55565b005b61030d60048036038101906103089190612865565b610f10565b60405161031a9190612e61565b60405180910390f35b61033d600480360381019061033891906128c1565b610ffb565b005b6103476111bd565b005b610363600480360381019061035e9190612825565b6111d1565b005b61036d611357565b60405161037a9190612de0565b60405180910390f35b61039d60048036038101906103989190612865565b611380565b6040516103aa9190612eb9565b60405180910390f35b6103cd60048036038101906103c891906127f8565b6114ef565b6040516103da9190612dfb565b60405180910390f35b6103fd60048036038101906103f89190612825565b61170f565b005b610419600480360381019061041491906127f8565b611895565b6040516104269190612e1d565b60405180910390f35b610449600480360381019061044491906127f8565b611a15565b6040516104569190612de0565b60405180910390f35b61047960048036038101906104749190612865565b611ac9565b005b610495600480360381019061049091906127f8565b611c5c565b6040516104a29190612eb9565b60405180910390f35b6104c560048036038101906104c09190612728565b611d15565b005b6104e160048036038101906104dc91906127f8565b611d99565b6040516104ee9190612e3f565b60405180910390f35b6104ff611fcf565b60405161050c9190612ef6565b60405180910390f35b61052f600480360381019061052a9190612865565b611ff5565b60405161053c9190612e83565b60405180910390f35b61054d612030565b60405161055a9190612edb565b60405180910390f35b60008173ffffffffffffffffffffffffffffffffffffffff16600160009054906101000a900473ffffffffffffffffffffffffffffffffffffffff1673ffffffffffffffffffffffffffffffffffffffff16636352211e856040518263ffffffff1660e01b81526004016105d79190612fd1565b60206040518083038186803b1580156105ef57600080fd5b505afa158015610603573d6000803e3d6000fd5b505050506040513d601f19601f820116820180604052508101906106279190612755565b73ffffffffffffffffffffffffffffffffffffffff16148061066a5750610669826003600086815260200190815260200160002061205690919063ffffffff16565b5b905092915050565b60008282604051602001610687929190612fec565b6040516020818303038152906040528051906020012060001c905092915050565b6000806106b58585610672565b9050600060076000838152602001908152602001600020604051806060016040529081600082015481526020016001820180546106f19061333f565b80601f016020809104026020016040519081016040528092919081815260200182805461071d9061333f565b801561076a5780601f1061073f5761010080835404028352916020019161076a565b820191906000526020600020905b81548152906001019060200180831161074d57829003601f168201915b505050505081526020016002820180546107839061333f565b80601f01602080910402602001604051908101604052809291908181526020018280546107af9061333f565b80156107fc5780601f106107d1576101008083540402835291602001916107fc565b820191906000526020600020905b8154815290600101906020018083116107df57829003601f168201915b5050505050815250509050600061082e83600660008b815260200190815260200160002061208690919063ffffffff16565b905080610841576000935050505061089d565b848051906020012082604001518051906020012014610895576040517f08c379a000000000000000000000000000000000000000000000000000000000815260040161088c90612f31565b60405180910390fd5b600193505050505b949350505050565b6000600160009054906101000a900473ffffffffffffffffffffffffffffffffffffffff1673ffffffffffffffffffffffffffffffffffffffff16636352211e866040518263ffffffff1660e01b81526004016109029190612fd1565b60206040518083038186803b15801561091a57600080fd5b505afa15801561092e573d6000803e3d6000fd5b505050506040513d601f19601f820116820180604052508101906109529190612755565b90508073ffffffffffffffffffffffffffffffffffffffff163373ffffffffffffffffffffffffffffffffffffffff16146109c2576040517f08c379a00000000000000000000000000000000000000000000000000000000081526004016109b990612fb1565b60405180910390fd5b6000604051806060016040528086815260200185815260200184815250905060006109ed8686610672565b90508160076000838152602001908152602001600020600082015181600001556020820151816001019080519060200190610a29929190612530565b506040820151816002019080519060200190610a46929190612530565b509050506000600660008981526020019081526020016000209050610a7482826120a090919063ffffffff16565b506000600860008481526020019081526020016000209050610a9f89826120a090919063ffffffff16565b50887f4dfd4dcf9a32ea95463b7eb5dff1641e34fce1c73bb3a2825a57dade392fdbd184604051610ad09190612fd1565b60405180910390a2505050505050505050565b610aeb6120ba565b80600160006101000a81548173ffffffffffffffffffffffffffffffffffffffff021916908373ffffffffffffffffffffffffffffffffffffffff16021790555050565b60046020528060005260406000206000915090508054610b4e9061333f565b80601f0160208091040260200160405190810160405280929190818152602001828054610b7a9061333f565b8015610bc75780601f10610b9c57610100808354040283529160200191610bc7565b820191906000526020600020905b815481529060010190602001808311610baa57829003601f168201915b505050505081565b6007602052806000526040600020600091509050806000015490806001018054610bf89061333f565b80601f0160208091040260200160405190810160405280929190818152602001828054610c249061333f565b8015610c715780601f10610c4657610100808354040283529160200191610c71565b820191906000526020600020905b815481529060010190602001808311610c5457829003601f168201915b505050505090806002018054610c869061333f565b80601f0160208091040260200160405190810160405280929190818152602001828054610cb29061333f565b8015610cff5780601f10610cd457610100808354040283529160200191610cff565b820191906000526020600020905b815481529060010190602001808311610ce257829003601f168201915b5050505050905083565b610d116120ba565b80600260006101000a81548173ffffffffffffffffffffffffffffffffffffffff021916908373ffffffffffffffffffffffffffffffffffffffff16021790555050565b6000600160009054906101000a900473ffffffffffffffffffffffffffffffffffffffff1673ffffffffffffffffffffffffffffffffffffffff16636352211e846040518263ffffffff1660e01b8152600401610db29190612fd1565b60206040518083038186803b158015610dca57600080fd5b505afa158015610dde573d6000803e3d6000fd5b505050506040513d601f19601f82011682018060405250810190610e029190612755565b90508073ffffffffffffffffffffffffffffffffffffffff163373ffffffffffffffffffffffffffffffffffffffff1614610e72576040517f08c379a0000000000000000000000000000000000000000000000000000000008152600401610e6990612f91565b60405180910390fd5b60008280519060200120905082600460008381526020019081526020016000209080519060200190610ea5929190612530565b506000600560008681526020019081526020016000209050610ed0828261213890919063ffffffff16565b50847fec2295902b2b8fb0f8b5117e543de24eb20bc67999581d476afa0c6ce35d2a2883604051610f019190612e9e565b60405180910390a25050505050565b60606000610f1e8484610672565b90506000610f3d6008600084815260200190815260200160002061214f565b905060008167ffffffffffffffff811115610f5b57610f5a6134a7565b5b604051908082528060200260200182016040528015610f895781602001602082028036833780820191505090505b50905060005b82811015610fee57610fbc816008600087815260200190815260200160002061216490919063ffffffff16565b828281518110610fcf57610fce613478565b5b6020026020010181815250508080610fe6906133a2565b915050610f8f565b5080935050505092915050565b6000600160009054906101000a900473ffffffffffffffffffffffffffffffffffffffff1673ffffffffffffffffffffffffffffffffffffffff16636352211e856040518263ffffffff1660e01b81526004016110589190612fd1565b60206040518083038186803b15801561107057600080fd5b505afa158015611084573d6000803e3d6000fd5b505050506040513d601f19601f820116820180604052508101906110a89190612755565b90508073ffffffffffffffffffffffffffffffffffffffff163373ffffffffffffffffffffffffffffffffffffffff1614611118576040517f08c379a000000000000000000000000000000000000000000000000000000000815260040161110f90612f51565b60405180910390fd5b60006111248484610672565b90506000600660008781526020019081526020016000209050611150828261217e90919063ffffffff16565b50600060086000848152602001908152602001600020905061117b878261217e90919063ffffffff16565b50867f1aa1f7dee6684d9bcef44513d98e6372c9d1ee95583cf0463afb97b91cec225d846040516111ac9190612fd1565b60405180910390a250505050505050565b6111c56120ba565b6111cf6000612198565b565b6000600160009054906101000a900473ffffffffffffffffffffffffffffffffffffffff1673ffffffffffffffffffffffffffffffffffffffff16636352211e846040518263ffffffff1660e01b815260040161122e9190612fd1565b60206040518083038186803b15801561124657600080fd5b505afa15801561125a573d6000803e3d6000fd5b505050506040513d601f19601f8201168201806040525081019061127e9190612755565b90508073ffffffffffffffffffffffffffffffffffffffff163373ffffffffffffffffffffffffffffffffffffffff16146112ee576040517f08c379a00000000000000000000000000000000000000000000000000000000081526004016112e590612f51565b60405180910390fd5b6000600360008581526020019081526020016000209050611318838261225c90919063ffffffff16565b50837fd19a2f498c0705681be43dd5dfd8d5345b05973c28a5171c0ec1f01e848791eb846040516113499190612de0565b60405180910390a250505050565b60008060009054906101000a900473ffffffffffffffffffffffffffffffffffffffff16905090565b6060600061138e8484610672565b9050600060076000838152602001908152602001600020604051806060016040529081600082015481526020016001820180546113ca9061333f565b80601f01602080910402602001604051908101604052809291908181526020018280546113f69061333f565b80156114435780601f1061141857610100808354040283529160200191611443565b820191906000526020600020905b81548152906001019060200180831161142657829003601f168201915b5050505050815260200160028201805461145c9061333f565b80601f01602080910402602001604051908101604052809291908181526020018280546114889061333f565b80156114d55780601f106114aa576101008083540402835291602001916114d5565b820191906000526020600020905b8154815290600101906020018083116114b857829003601f168201915b505050505081525050905080604001519250505092915050565b6060600061150e6003600085815260200190815260200160002061228c565b9050600060018261151f91906131d9565b67ffffffffffffffff811115611538576115376134a7565b5b6040519080825280602002602001820160405280156115665781602001602082028036833780820191505090505b5090506000600160009054906101000a900473ffffffffffffffffffffffffffffffffffffffff1673ffffffffffffffffffffffffffffffffffffffff16636352211e866040518263ffffffff1660e01b81526004016115c69190612fd1565b60206040518083038186803b1580156115de57600080fd5b505afa1580156115f2573d6000803e3d6000fd5b505050506040513d601f19601f820116820180604052508101906116169190612755565b9050808260008151811061162d5761162c613478565b5b602002602001019073ffffffffffffffffffffffffffffffffffffffff16908173ffffffffffffffffffffffffffffffffffffffff168152505060005b838110156117035761169781600360008981526020019081526020016000206122a190919063ffffffff16565b836001836116a591906131d9565b815181106116b6576116b5613478565b5b602002602001019073ffffffffffffffffffffffffffffffffffffffff16908173ffffffffffffffffffffffffffffffffffffffff168152505080806116fb906133a2565b91505061166a565b50819350505050919050565b6000600160009054906101000a900473ffffffffffffffffffffffffffffffffffffffff1673ffffffffffffffffffffffffffffffffffffffff16636352211e846040518263ffffffff1660e01b815260040161176c9190612fd1565b60206040518083038186803b15801561178457600080fd5b505afa158015611798573d6000803e3d6000fd5b505050506040513d601f19601f820116820180604052508101906117bc9190612755565b90508073ffffffffffffffffffffffffffffffffffffffff163373ffffffffffffffffffffffffffffffffffffffff161461182c576040517f08c379a000000000000000000000000000000000000000000000000000000000815260040161182390612f51565b60405180910390fd5b600060036000858152602001908152602001600020905061185683826122bb90919063ffffffff16565b50837fc646365ec693b9b569c52934b6e717f1970222cb659698ebf3f3986a7ff4f7e0846040516118879190612de0565b60405180910390a250505050565b606060006118b4600560008581526020019081526020016000206122eb565b905060008167ffffffffffffffff8111156118d2576118d16134a7565b5b60405190808252806020026020018201604052801561190557816020015b60608152602001906001900390816118f05790505b50905060005b82811015611a0a57600061193a826005600089815260200190815260200160002061230090919063ffffffff16565b905060046000828152602001908152602001600020805461195a9061333f565b80601f01602080910402602001604051908101604052809291908181526020018280546119869061333f565b80156119d35780601f106119a8576101008083540402835291602001916119d3565b820191906000526020600020905b8154815290600101906020018083116119b657829003601f168201915b50505050508383815181106119eb576119ea613478565b5b6020026020010181905250508080611a02906133a2565b91505061190b565b508092505050919050565b6000600260009054906101000a900473ffffffffffffffffffffffffffffffffffffffff1673ffffffffffffffffffffffffffffffffffffffff1663bd4986a0836040518263ffffffff1660e01b8152600401611a729190612fd1565b60206040518083038186803b158015611a8a57600080fd5b505afa158015611a9e573d6000803e3d6000fd5b505050506040513d601f19601f82011682018060405250810190611ac29190612755565b9050919050565b6000600160009054906101000a900473ffffffffffffffffffffffffffffffffffffffff1673ffffffffffffffffffffffffffffffffffffffff16636352211e846040518263ffffffff1660e01b8152600401611b269190612fd1565b60206040518083038186803b158015611b3e57600080fd5b505afa158015611b52573d6000803e3d6000fd5b505050506040513d601f19601f82011682018060405250810190611b769190612755565b90508073ffffffffffffffffffffffffffffffffffffffff163373ffffffffffffffffffffffffffffffffffffffff1614611be6576040517f08c379a0000000000000000000000000000000000000000000000000000000008152600401611bdd90612f91565b60405180910390fd5b6000828051906020012090506000600560008681526020019081526020016000209050611c1c828261231790919063ffffffff16565b50847fd85edc8411e3e8eceb3849d5f7dd1f642cb1671f8c3c26f987464e2d10eb1aa983604051611c4d9190612e9e565b60405180910390a25050505050565b6060600260009054906101000a900473ffffffffffffffffffffffffffffffffffffffff1673ffffffffffffffffffffffffffffffffffffffff1663ef6fd878836040518263ffffffff1660e01b8152600401611cb99190612fd1565b60006040518083038186803b158015611cd157600080fd5b505afa158015611ce5573d6000803e3d6000fd5b505050506040513d6000823e3d601f19601f82011682018060405250810190611d0e91906127af565b9050919050565b611d1d6120ba565b600073ffffffffffffffffffffffffffffffffffffffff168173ffffffffffffffffffffffffffffffffffffffff161415611d8d576040517f08c379a0000000000000000000000000000000000000000000000000000000008152600401611d8490612f11565b60405180910390fd5b611d9681612198565b50565b60606000611db86006600085815260200190815260200160002061214f565b905060008167ffffffffffffffff811115611dd657611dd56134a7565b5b604051908082528060200260200182016040528015611e0f57816020015b611dfc6125b6565b815260200190600190039081611df45790505b50905060005b82811015611fc4576000611e44826006600089815260200190815260200160002061216490919063ffffffff16565b90506007600082815260200190815260200160002060405180606001604052908160008201548152602001600182018054611e7e9061333f565b80601f0160208091040260200160405190810160405280929190818152602001828054611eaa9061333f565b8015611ef75780601f10611ecc57610100808354040283529160200191611ef7565b820191906000526020600020905b815481529060010190602001808311611eda57829003601f168201915b50505050508152602001600282018054611f109061333f565b80601f0160208091040260200160405190810160405280929190818152602001828054611f3c9061333f565b8015611f895780601f10611f5e57610100808354040283529160200191611f89565b820191906000526020600020905b815481529060010190602001808311611f6c57829003601f168201915b505050505081525050838381518110611fa557611fa4613478565b5b6020026020010181905250508080611fbc906133a2565b915050611e15565b508092505050919050565b600260009054906101000a900473ffffffffffffffffffffffffffffffffffffffff1681565b60008082805190602001209050612027816005600087815260200190815260200160002061232e90919063ffffffff16565b91505092915050565b600160009054906101000a900473ffffffffffffffffffffffffffffffffffffffff1681565b600061207e836000018373ffffffffffffffffffffffffffffffffffffffff1660001b612345565b905092915050565b6000612098836000018360001b612345565b905092915050565b60006120b2836000018360001b612368565b905092915050565b6120c26123d8565b73ffffffffffffffffffffffffffffffffffffffff166120e0611357565b73ffffffffffffffffffffffffffffffffffffffff1614612136576040517f08c379a000000000000000000000000000000000000000000000000000000000815260040161212d90612f71565b60405180910390fd5b565b60006121478360000183612368565b905092915050565b600061215d826000016123e0565b9050919050565b600061217383600001836123f1565b60001c905092915050565b6000612190836000018360001b61241c565b905092915050565b60008060009054906101000a900473ffffffffffffffffffffffffffffffffffffffff169050816000806101000a81548173ffffffffffffffffffffffffffffffffffffffff021916908373ffffffffffffffffffffffffffffffffffffffff1602179055508173ffffffffffffffffffffffffffffffffffffffff168173ffffffffffffffffffffffffffffffffffffffff167f8be0079c531659141344cd1fd0a4f28419497f9722a3daafe3b4186f6b6457e060405160405180910390a35050565b6000612284836000018373ffffffffffffffffffffffffffffffffffffffff1660001b612368565b905092915050565b600061229a826000016123e0565b9050919050565b60006122b083600001836123f1565b60001c905092915050565b60006122e3836000018373ffffffffffffffffffffffffffffffffffffffff1660001b61241c565b905092915050565b60006122f9826000016123e0565b9050919050565b600061230f83600001836123f1565b905092915050565b6000612326836000018361241c565b905092915050565b600061233d8360000183612345565b905092915050565b600080836001016000848152602001908152602001600020541415905092915050565b60006123748383612345565b6123cd5782600001829080600181540180825580915050600190039060005260206000200160009091909190915055826000018054905083600101600084815260200190815260200160002081905550600190506123d2565b600090505b92915050565b600033905090565b600081600001805490509050919050565b600082600001828154811061240957612408613478565b5b9060005260206000200154905092915050565b6000808360010160008481526020019081526020016000205490506000811461252457600060018261244e919061322f565b9050600060018660000180549050612466919061322f565b90508181146124d557600086600001828154811061248757612486613478565b5b90600052602060002001549050808760000184815481106124ab576124aa613478565b5b90600052602060002001819055508387600101600083815260200190815260200160002081905550505b856000018054806124e9576124e8613449565b5b60019003818190600052602060002001600090559055856001016000868152602001908152602001600020600090556001935050505061252a565b60009150505b92915050565b82805461253c9061333f565b90600052602060002090601f01602090048101928261255e57600085556125a5565b82601f1061257757805160ff19168380011785556125a5565b828001600101855582156125a5579182015b828111156125a4578251825591602001919060010190612589565b5b5090506125b291906125d7565b5090565b60405180606001604052806000815260200160608152602001606081525090565b5b808211156125f05760008160009055506001016125d8565b5090565b600061260761260284613086565b613061565b905082815260208101848484011115612623576126226134db565b5b61262e8482856132fd565b509392505050565b600061264961264484613086565b613061565b905082815260208101848484011115612665576126646134db565b5b61267084828561330c565b509392505050565b600081359050612687816136af565b92915050565b60008151905061269c816136af565b92915050565b6000813590506126b1816136c6565b92915050565b600082601f8301126126cc576126cb6134d6565b5b81356126dc8482602086016125f4565b91505092915050565b600082601f8301126126fa576126f96134d6565b5b815161270a848260208601612636565b91505092915050565b600081359050612722816136dd565b92915050565b60006020828403121561273e5761273d6134e5565b5b600061274c84828501612678565b91505092915050565b60006020828403121561276b5761276a6134e5565b5b60006127798482850161268d565b91505092915050565b600060208284031215612798576127976134e5565b5b60006127a6848285016126a2565b91505092915050565b6000602082840312156127c5576127c46134e5565b5b600082015167ffffffffffffffff8111156127e3576127e26134e0565b5b6127ef848285016126e5565b91505092915050565b60006020828403121561280e5761280d6134e5565b5b600061281c84828501612713565b91505092915050565b6000806040838503121561283c5761283b6134e5565b5b600061284a85828601612713565b925050602061285b85828601612678565b9150509250929050565b6000806040838503121561287c5761287b6134e5565b5b600061288a85828601612713565b925050602083013567ffffffffffffffff8111156128ab576128aa6134e0565b5b6128b7858286016126b7565b9150509250929050565b6000806000606084860312156128da576128d96134e5565b5b60006128e886828701612713565b93505060206128f986828701612713565b925050604084013567ffffffffffffffff81111561291a576129196134e0565b5b612926868287016126b7565b9150509250925092565b6000806000806080858703121561294a576129496134e5565b5b600061295887828801612713565b945050602061296987828801612713565b935050604085013567ffffffffffffffff81111561298a576129896134e0565b5b612996878288016126b7565b925050606085013567ffffffffffffffff8111156129b7576129b66134e0565b5b6129c3878288016126b7565b91505092959194509250565b60006129db8383612a27565b60208301905092915050565b60006129f38383612c09565b905092915050565b6000612a078383612d6b565b905092915050565b6000612a1b8383612dc2565b60208301905092915050565b612a3081613263565b82525050565b612a3f81613263565b82525050565b6000612a50826130f7565b612a5a8185613162565b9350612a65836130b7565b8060005b83811015612a96578151612a7d88826129cf565b9750612a888361312e565b925050600181019050612a69565b5085935050505092915050565b6000612aae82613102565b612ab88185613173565b935083602082028501612aca856130c7565b8060005b85811015612b065784840389528151612ae785826129e7565b9450612af28361313b565b925060208a01995050600181019050612ace565b50829750879550505050505092915050565b6000612b238261310d565b612b2d8185613184565b935083602082028501612b3f856130d7565b8060005b85811015612b7b5784840389528151612b5c85826129fb565b9450612b6783613148565b925060208a01995050600181019050612b43565b50829750879550505050505092915050565b6000612b9882613118565b612ba28185613195565b9350612bad836130e7565b8060005b83811015612bde578151612bc58882612a0f565b9750612bd083613155565b925050600181019050612bb1565b5085935050505092915050565b612bf481613275565b82525050565b612c0381613281565b82525050565b6000612c1482613123565b612c1e81856131a6565b9350612c2e81856020860161330c565b612c37816134ea565b840191505092915050565b6000612c4d82613123565b612c5781856131b7565b9350612c6781856020860161330c565b612c70816134ea565b840191505092915050565b612c84816132b5565b82525050565b612c93816132c7565b82525050565b6000612ca66026836131c8565b9150612cb1826134fb565b604082019050919050565b6000612cc96036836131c8565b9150612cd48261354a565b604082019050919050565b6000612cec603d836131c8565b9150612cf782613599565b604082019050919050565b6000612d0f6020836131c8565b9150612d1a826135e8565b602082019050919050565b6000612d32603b836131c8565b9150612d3d82613611565b604082019050919050565b6000612d556040836131c8565b9150612d6082613660565b604082019050919050565b6000606083016000830151612d836000860182612dc2565b5060208301518482036020860152612d9b8282612c09565b91505060408301518482036040860152612db58282612c09565b9150508091505092915050565b612dcb816132ab565b82525050565b612dda816132ab565b82525050565b6000602082019050612df56000830184612a36565b92915050565b60006020820190508181036000830152612e158184612a45565b905092915050565b60006020820190508181036000830152612e378184612aa3565b905092915050565b60006020820190508181036000830152612e598184612b18565b905092915050565b60006020820190508181036000830152612e7b8184612b8d565b905092915050565b6000602082019050612e986000830184612beb565b92915050565b6000602082019050612eb36000830184612bfa565b92915050565b60006020820190508181036000830152612ed38184612c42565b905092915050565b6000602082019050612ef06000830184612c7b565b92915050565b6000602082019050612f0b6000830184612c8a565b92915050565b60006020820190508181036000830152612f2a81612c99565b9050919050565b60006020820190508181036000830152612f4a81612cbc565b9050919050565b60006020820190508181036000830152612f6a81612cdf565b9050919050565b60006020820190508181036000830152612f8a81612d02565b9050919050565b60006020820190508181036000830152612faa81612d25565b9050919050565b60006020820190508181036000830152612fca81612d48565b9050919050565b6000602082019050612fe66000830184612dd1565b92915050565b60006040820190506130016000830185612dd1565b81810360208301526130138184612c42565b90509392505050565b60006060820190506130316000830186612dd1565b81810360208301526130438185612c42565b905081810360408301526130578184612c42565b9050949350505050565b600061306b61307c565b90506130778282613371565b919050565b6000604051905090565b600067ffffffffffffffff8211156130a1576130a06134a7565b5b6130aa826134ea565b9050602081019050919050565b6000819050602082019050919050565b6000819050602082019050919050565b6000819050602082019050919050565b6000819050602082019050919050565b600081519050919050565b600081519050919050565b600081519050919050565b600081519050919050565b600081519050919050565b6000602082019050919050565b6000602082019050919050565b6000602082019050919050565b6000602082019050919050565b600082825260208201905092915050565b600082825260208201905092915050565b600082825260208201905092915050565b600082825260208201905092915050565b600082825260208201905092915050565b600082825260208201905092915050565b600082825260208201905092915050565b60006131e4826132ab565b91506131ef836132ab565b9250827fffffffffffffffffffffffffffffffffffffffffffffffffffffffffffffffff03821115613224576132236133eb565b5b828201905092915050565b600061323a826132ab565b9150613245836132ab565b925082821015613258576132576133eb565b5b828203905092915050565b600061326e8261328b565b9050919050565b60008115159050919050565b6000819050919050565b600073ffffffffffffffffffffffffffffffffffffffff82169050919050565b6000819050919050565b60006132c0826132d9565b9050919050565b60006132d2826132d9565b9050919050565b60006132e4826132eb565b9050919050565b60006132f68261328b565b9050919050565b82818337600083830152505050565b60005b8381101561332a57808201518184015260208101905061330f565b83811115613339576000848401525b50505050565b6000600282049050600182168061335757607f821691505b6020821081141561336b5761336a61341a565b5b50919050565b61337a826134ea565b810181811067ffffffffffffffff82111715613399576133986134a7565b5b80604052505050565b60006133ad826132ab565b91507fffffffffffffffffffffffffffffffffffffffffffffffffffffffffffffffff8214156133e0576133df6133eb565b5b600182019050919050565b7f4e487b7100000000000000000000000000000000000000000000000000000000600052601160045260246000fd5b7f4e487b7100000000000000000000000000000000000000000000000000000000600052602260045260246000fd5b7f4e487b7100000000000000000000000000000000000000000000000000000000600052603160045260246000fd5b7f4e487b7100000000000000000000000000000000000000000000000000000000600052603260045260246000fd5b7f4e487b7100000000000000000000000000000000000000000000000000000000600052604160045260246000fd5b600080fd5b600080fd5b600080fd5b600080fd5b6000601f19601f8301169050919050565b7f4f776e61626c653a206e6577206f776e657220697320746865207a65726f206160008201527f6464726573730000000000000000000000000000000000000000000000000000602082015250565b7f546865207075626b657920796f75207375626d697474656420646f6573206e6f60008201527f74206d6174636820746865206f6e652073746f72656400000000000000000000602082015250565b7f4f6e6c792074686520504b50204e4654206f776e65722063616e20616464206160008201527f6e642072656d6f7665207065726d697474656420616464726573736573000000602082015250565b7f4f776e61626c653a2063616c6c6572206973206e6f7420746865206f776e6572600082015250565b7f4f6e6c792074686520504b50204e4654206f776e65722063616e20616464206160008201527f6e642072656d6f7665207065726d697474656420616374696f6e730000000000602082015250565b7f4f6e6c792074686520504b50204e4654206f776e65722063616e20616464206160008201527f6e642072656d6f7665207065726d69747465642061757468206d6574686f6473602082015250565b6136b881613263565b81146136c357600080fd5b50565b6136cf81613281565b81146136da57600080fd5b50565b6136e6816132ab565b81146136f157600080fd5b5056fea2646970667358221220efa77c8676112f4bf2fd5cfc6ec932e36bc181dbde9c7d1fcfb276ffcfde8cb364736f6c63430008070033",
  "linkReferences": {},
  "deployedLinkReferences": {}
}