{
  "_format": "hh-sol-artifact-1",
  "contractName": "PubkeyRouter",
  "sourceName": "contracts/PubkeyRouter.sol",
  "abi": [
    {
      "inputs": [
        {
          "internalType": "address",
          "name": "_pkpNft",
          "type": "address"
        }
      ],
      "stateMutability": "nonpayable",
      "type": "constructor"
    },
    {
      "anonymous": false,
      "inputs": [
        {
          "indexed": true,
          "internalType": "address",
          "name": "previousOwner",
          "type": "address"
        },
        {
          "indexed": true,
          "internalType": "address",
          "name": "newOwner",
          "type": "address"
        }
      ],
      "name": "OwnershipTransferred",
      "type": "event"
    },
    {
      "anonymous": false,
      "inputs": [
        {
          "indexed": true,
          "internalType": "uint256",
          "name": "tokenId",
          "type": "uint256"
        },
        {
          "indexed": false,
          "internalType": "bytes",
          "name": "pubkey",
          "type": "bytes"
        },
        {
          "indexed": false,
          "internalType": "address",
          "name": "stakingContract",
          "type": "address"
        },
        {
          "indexed": false,
          "internalType": "uint256",
          "name": "keyType",
          "type": "uint256"
        }
      ],
      "name": "PubkeyRoutingDataSet",
      "type": "event"
    },
    {
      "anonymous": false,
      "inputs": [
        {
          "indexed": true,
          "internalType": "uint256",
          "name": "tokenId",
          "type": "uint256"
        },
        {
          "indexed": true,
          "internalType": "address",
          "name": "nodeAddress",
          "type": "address"
        },
        {
          "indexed": false,
          "internalType": "bytes",
          "name": "pubkey",
          "type": "bytes"
        },
        {
          "indexed": false,
          "internalType": "address",
          "name": "stakingContract",
          "type": "address"
        },
        {
          "indexed": false,
          "internalType": "uint256",
          "name": "keyType",
          "type": "uint256"
        }
      ],
      "name": "PubkeyRoutingDataVote",
      "type": "event"
    },
    {
      "inputs": [
        {
          "internalType": "address",
          "name": "",
          "type": "address"
        }
      ],
      "name": "ethAddressToPkpId",
      "outputs": [
        {
          "internalType": "uint256",
          "name": "",
          "type": "uint256"
        }
      ],
      "stateMutability": "view",
      "type": "function"
    },
    {
      "inputs": [
        {
          "internalType": "uint256",
          "name": "tokenId",
          "type": "uint256"
        }
      ],
      "name": "getEthAddress",
      "outputs": [
        {
          "internalType": "address",
          "name": "",
          "type": "address"
        }
      ],
      "stateMutability": "view",
      "type": "function"
    },
    {
      "inputs": [
        {
          "internalType": "uint256",
          "name": "tokenId",
          "type": "uint256"
        }
      ],
      "name": "getPubkey",
      "outputs": [
        {
          "internalType": "bytes",
          "name": "",
          "type": "bytes"
        }
      ],
      "stateMutability": "view",
      "type": "function"
    },
    {
      "inputs": [
        {
          "internalType": "uint256",
          "name": "tokenId",
          "type": "uint256"
        }
      ],
      "name": "getRoutingData",
      "outputs": [
        {
          "components": [
            {
              "internalType": "bytes",
              "name": "pubkey",
              "type": "bytes"
            },
            {
              "internalType": "address",
              "name": "stakingContract",
              "type": "address"
            },
            {
              "internalType": "uint256",
              "name": "keyType",
              "type": "uint256"
            }
          ],
          "internalType": "struct PubkeyRouter.PubkeyRoutingData",
          "name": "",
          "type": "tuple"
        }
      ],
      "stateMutability": "view",
      "type": "function"
    },
    {
      "inputs": [
        {
          "internalType": "uint256",
          "name": "tokenId",
          "type": "uint256"
        }
      ],
      "name": "isRouted",
      "outputs": [
        {
          "internalType": "bool",
          "name": "",
          "type": "bool"
        }
      ],
      "stateMutability": "view",
      "type": "function"
    },
    {
      "inputs": [],
      "name": "owner",
      "outputs": [
        {
          "internalType": "address",
          "name": "",
          "type": "address"
        }
      ],
      "stateMutability": "view",
      "type": "function"
    },
    {
      "inputs": [],
      "name": "pkpNFT",
      "outputs": [
        {
          "internalType": "contract PKPNFT",
          "name": "",
          "type": "address"
        }
      ],
      "stateMutability": "view",
      "type": "function"
    },
    {
      "inputs": [
        {
          "internalType": "uint256",
          "name": "",
          "type": "uint256"
        }
      ],
      "name": "pubkeyRegistrations",
      "outputs": [
        {
          "components": [
            {
              "internalType": "bytes",
              "name": "pubkey",
              "type": "bytes"
            },
            {
              "internalType": "address",
              "name": "stakingContract",
              "type": "address"
            },
            {
              "internalType": "uint256",
              "name": "keyType",
              "type": "uint256"
            }
          ],
          "internalType": "struct PubkeyRouter.PubkeyRoutingData",
          "name": "routingData",
          "type": "tuple"
        },
        {
          "internalType": "uint256",
          "name": "nodeVoteCount",
          "type": "uint256"
        },
        {
          "internalType": "uint256",
          "name": "nodeVoteThreshold",
          "type": "uint256"
        }
      ],
      "stateMutability": "view",
      "type": "function"
    },
    {
      "inputs": [
        {
          "internalType": "uint256",
          "name": "",
          "type": "uint256"
        }
      ],
      "name": "pubkeys",
      "outputs": [
        {
          "internalType": "bytes",
          "name": "pubkey",
          "type": "bytes"
        },
        {
          "internalType": "address",
          "name": "stakingContract",
          "type": "address"
        },
        {
          "internalType": "uint256",
          "name": "keyType",
          "type": "uint256"
        }
      ],
      "stateMutability": "view",
      "type": "function"
    },
    {
      "inputs": [],
      "name": "renounceOwnership",
      "outputs": [],
      "stateMutability": "nonpayable",
      "type": "function"
    },
    {
      "inputs": [
        {
          "internalType": "address",
          "name": "newPkpNftAddress",
          "type": "address"
        }
      ],
      "name": "setPkpNftAddress",
      "outputs": [],
      "stateMutability": "nonpayable",
      "type": "function"
    },
    {
      "inputs": [
        {
          "internalType": "uint256",
          "name": "tokenId",
          "type": "uint256"
        },
        {
          "internalType": "bytes",
          "name": "pubkey",
          "type": "bytes"
        },
        {
          "internalType": "address",
          "name": "stakingContract",
          "type": "address"
        },
        {
          "internalType": "uint256",
          "name": "keyType",
          "type": "uint256"
        }
      ],
      "name": "setRoutingData",
      "outputs": [],
      "stateMutability": "nonpayable",
      "type": "function"
    },
    {
      "inputs": [
        {
          "internalType": "address",
          "name": "newOwner",
          "type": "address"
        }
      ],
      "name": "transferOwnership",
      "outputs": [],
      "stateMutability": "nonpayable",
      "type": "function"
    },
    {
      "inputs": [
        {
          "internalType": "uint256",
          "name": "tokenId",
          "type": "uint256"
        },
        {
          "internalType": "bytes",
          "name": "pubkey",
          "type": "bytes"
        },
        {
          "internalType": "address",
          "name": "stakingContract",
          "type": "address"
        },
        {
          "internalType": "uint256",
          "name": "keyType",
          "type": "uint256"
        }
      ],
      "name": "voteForRoutingData",
      "outputs": [],
      "stateMutability": "nonpayable",
      "type": "function"
    }
  ],
  "bytecode": "0x60806040523480156200001157600080fd5b506040516200276a3803806200276a833981810160405281019062000037919062000182565b620000576200004b6200009f60201b60201c565b620000a760201b60201c565b80600160006101000a81548173ffffffffffffffffffffffffffffffffffffffff021916908373ffffffffffffffffffffffffffffffffffffffff1602179055505062000207565b600033905090565b60008060009054906101000a900473ffffffffffffffffffffffffffffffffffffffff169050816000806101000a81548173ffffffffffffffffffffffffffffffffffffffff021916908373ffffffffffffffffffffffffffffffffffffffff1602179055508173ffffffffffffffffffffffffffffffffffffffff168173ffffffffffffffffffffffffffffffffffffffff167f8be0079c531659141344cd1fd0a4f28419497f9722a3daafe3b4186f6b6457e060405160405180910390a35050565b6000815190506200017c81620001ed565b92915050565b6000602082840312156200019b576200019a620001e8565b5b6000620001ab848285016200016b565b91505092915050565b6000620001c182620001c8565b9050919050565b600073ffffffffffffffffffffffffffffffffffffffff82169050919050565b600080fd5b620001f881620001b4565b81146200020457600080fd5b50565b61255380620002176000396000f3fe608060405234801561001057600080fd5b50600436106100ea5760003560e01c80638da5cb5b1161008c578063de18a50811610066578063de18a5081461025f578063ef6fd8781461028f578063f2fde38b146102bf578063ffa2e953146102db576100ea565b80638da5cb5b146101df578063b3fe5cf2146101fd578063bd4986a01461022f576100ea565b8063583cb30a116100c8578063583cb30a1461016b5780636edad78714610187578063715018a6146101a35780637bd3e3f6146101ad576100ea565b806301c6d035146100ef578063176354fd1461011f57806325c836f91461013b575b600080fd5b610109600480360381019061010491906118d6565b6102f9565b6040516101169190611cde565b60405180910390f35b6101396004803603810190610134919061184f565b61046e565b005b610155600480360381019061015091906118d6565b6104ba565b6040516101629190611eb4565b60405180910390f35b61018560048036038101906101809190611930565b6105d9565b005b6101a1600480360381019061019c9190611930565b610e26565b005b6101ab610f9a565b005b6101c760048036038101906101c291906118d6565b610fae565b6040516101d693929190611d1b565b60405180910390f35b6101e7611080565b6040516101f49190611cc3565b60405180910390f35b610217600480360381019061021291906118d6565b6110a9565b60405161022693929190611ed6565b60405180910390f35b610249600480360381019061024491906118d6565b6111cf565b6040516102569190611cc3565b60405180910390f35b6102796004803603810190610274919061184f565b6112ca565b6040516102869190611f14565b60405180910390f35b6102a960048036038101906102a491906118d6565b6112e2565b6040516102b69190611cf9565b60405180910390f35b6102d960048036038101906102d4919061184f565b61138a565b005b6102e361140e565b6040516102f09190611d59565b60405180910390f35b6000806002600084815260200190815260200160002060405180606001604052908160008201805461032a90612122565b80601f016020809104026020016040519081016040528092919081815260200182805461035690612122565b80156103a35780601f10610378576101008083540402835291602001916103a3565b820191906000526020600020905b81548152906001019060200180831161038657829003601f168201915b505050505081526020016001820160009054906101000a900473ffffffffffffffffffffffffffffffffffffffff1673ffffffffffffffffffffffffffffffffffffffff1673ffffffffffffffffffffffffffffffffffffffff168152602001600282015481525050905060008160000151511415801561042957506000816040015114155b80156104665750600073ffffffffffffffffffffffffffffffffffffffff16816020015173ffffffffffffffffffffffffffffffffffffffff1614155b915050919050565b610476611434565b80600160006101000a81548173ffffffffffffffffffffffffffffffffffffffff021916908373ffffffffffffffffffffffffffffffffffffffff16021790555050565b6104c261169c565b600260008381526020019081526020016000206040518060600160405290816000820180546104f090612122565b80601f016020809104026020016040519081016040528092919081815260200182805461051c90612122565b80156105695780601f1061053e57610100808354040283529160200191610569565b820191906000526020600020905b81548152906001019060200180831161054c57829003601f168201915b505050505081526020016001820160009054906101000a900473ffffffffffffffffffffffffffffffffffffffff1673ffffffffffffffffffffffffffffffffffffffff1673ffffffffffffffffffffffffffffffffffffffff1681526020016002820154815250509050919050565b600082905060008173ffffffffffffffffffffffffffffffffffffffff16635081f66f336040518263ffffffff1660e01b81526004016106199190611cc3565b60206040518083038186803b15801561063157600080fd5b505afa158015610645573d6000803e3d6000fd5b505050506040513d601f19601f82011682018060405250810190610669919061187c565b90508173ffffffffffffffffffffffffffffffffffffffff166340550a1c826040518263ffffffff1660e01b81526004016106a49190611cc3565b60206040518083038186803b1580156106bc57600080fd5b505afa1580156106d0573d6000803e3d6000fd5b505050506040513d601f19601f820116820180604052508101906106f491906118a9565b610733576040517f08c379a000000000000000000000000000000000000000000000000000000000815260040161072a90611e34565b60405180910390fd5b6003600087815260200190815260200160002060050160003373ffffffffffffffffffffffffffffffffffffffff1673ffffffffffffffffffffffffffffffffffffffff16815260200190815260200160002060009054906101000a900460ff16156107d4576040517f08c379a00000000000000000000000000000000000000000000000000000000081526004016107cb90611e14565b60405180910390fd5b60006003600088815260200190815260200160002060030154141561098057848051906020012060001c861461083f576040517f08c379a000000000000000000000000000000000000000000000000000000000815260040161083690611db4565b60405180910390fd5b8460036000888152602001908152602001600020600001600001908051906020019061086c9291906116d3565b50836003600088815260200190815260200160002060000160010160006101000a81548173ffffffffffffffffffffffffffffffffffffffff021916908373ffffffffffffffffffffffffffffffffffffffff1602179055508260036000888152602001908152602001600020600001600201819055508173ffffffffffffffffffffffffffffffffffffffff1663dd21d6266040518163ffffffff1660e01b815260040160206040518083038186803b15801561092957600080fd5b505afa15801561093d573d6000803e3d6000fd5b505050506040513d601f19601f820116820180604052508101906109619190611903565b6003600088815260200190815260200160002060040181905550610b2a565b6003600087815260200190815260200160002060000160000180546109a490612122565b905085511480156109e85750600360008781526020019081526020016000206000016000016040516109d69190611cac565b60405180910390208580519060200120145b610a27576040517f08c379a0000000000000000000000000000000000000000000000000000000008152600401610a1e90611d74565b60405180910390fd5b6003600087815260200190815260200160002060000160010160009054906101000a900473ffffffffffffffffffffffffffffffffffffffff1673ffffffffffffffffffffffffffffffffffffffff168473ffffffffffffffffffffffffffffffffffffffff1614610ace576040517f08c379a0000000000000000000000000000000000000000000000000000000008152600401610ac590611e94565b60405180910390fd5b60036000878152602001908152602001600020600001600201548314610b29576040517f08c379a0000000000000000000000000000000000000000000000000000000008152600401610b2090611dd4565b60405180910390fd5b5b60016003600088815260200190815260200160002060050160003373ffffffffffffffffffffffffffffffffffffffff1673ffffffffffffffffffffffffffffffffffffffff16815260200190815260200160002060006101000a81548160ff021916908315150217905550600360008781526020019081526020016000206003016000815480929190610bbd90612185565b91905055503373ffffffffffffffffffffffffffffffffffffffff16867f55a9294995c030f731a7eefced80c512d4bb6826c506f230021a7320ccc1d172878787604051610c0d93929190611d1b565b60405180910390a360036000878152602001908152602001600020600401546003600088815260200190815260200160002060030154118015610c565750610c54866102f9565b155b15610e1e5784600260008881526020019081526020016000206000019080519060200190610c859291906116d3565b50836002600088815260200190815260200160002060010160006101000a81548173ffffffffffffffffffffffffffffffffffffffff021916908373ffffffffffffffffffffffffffffffffffffffff1602179055508260026000888152602001908152602001600020600201819055506002831415610d52576000610d0a876111cf565b905086600460008373ffffffffffffffffffffffffffffffffffffffff1673ffffffffffffffffffffffffffffffffffffffff16815260200190815260200160002081905550505b600160009054906101000a900473ffffffffffffffffffffffffffffffffffffffff1673ffffffffffffffffffffffffffffffffffffffff16635c110a9c87856040518363ffffffff1660e01b8152600401610daf929190611f2f565b600060405180830381600087803b158015610dc957600080fd5b505af1158015610ddd573d6000803e3d6000fd5b50505050857f5c4ca40b0470d7d59d8b59dfbd57d9a2e50a8f0b84d22521c146b646274e1a38868686604051610e1593929190611d1b565b60405180910390a25b505050505050565b610e2e611434565b82600260008681526020019081526020016000206000019080519060200190610e589291906116d3565b50816002600086815260200190815260200160002060010160006101000a81548173ffffffffffffffffffffffffffffffffffffffff021916908373ffffffffffffffffffffffffffffffffffffffff160217905550806002600086815260200190815260200160002060020181905550600160009054906101000a900473ffffffffffffffffffffffffffffffffffffffff1673ffffffffffffffffffffffffffffffffffffffff16635c110a9c85836040518363ffffffff1660e01b8152600401610f26929190611f2f565b600060405180830381600087803b158015610f4057600080fd5b505af1158015610f54573d6000803e3d6000fd5b50505050837f5c4ca40b0470d7d59d8b59dfbd57d9a2e50a8f0b84d22521c146b646274e1a38848484604051610f8c93929190611d1b565b60405180910390a250505050565b610fa2611434565b610fac60006114b2565b565b6002602052806000526040600020600091509050806000018054610fd190612122565b80601f0160208091040260200160405190810160405280929190818152602001828054610ffd90612122565b801561104a5780601f1061101f5761010080835404028352916020019161104a565b820191906000526020600020905b81548152906001019060200180831161102d57829003601f168201915b5050505050908060010160009054906101000a900473ffffffffffffffffffffffffffffffffffffffff16908060020154905083565b60008060009054906101000a900473ffffffffffffffffffffffffffffffffffffffff16905090565b6003602052806000526040600020600091509050806000016040518060600160405290816000820180546110dc90612122565b80601f016020809104026020016040519081016040528092919081815260200182805461110890612122565b80156111555780601f1061112a57610100808354040283529160200191611155565b820191906000526020600020905b81548152906001019060200180831161113857829003601f168201915b505050505081526020016001820160009054906101000a900473ffffffffffffffffffffffffffffffffffffffff1673ffffffffffffffffffffffffffffffffffffffff1673ffffffffffffffffffffffffffffffffffffffff168152602001600282015481525050908060030154908060040154905083565b6000600280600084815260200190815260200160002060020154146111f757600090506112c5565b60006112ae6001604060026000878152602001908152602001600020600001805461122190612122565b80601f016020809104026020016040519081016040528092919081815260200182805461124d90612122565b801561129a5780601f1061126f5761010080835404028352916020019161129a565b820191906000526020600020905b81548152906001019060200180831161127d57829003601f168201915b50505050506115769092919063ffffffff16565b90506000818051906020012090508060001c925050505b919050565b60046020528060005260406000206000915090505481565b606060026000838152602001908152602001600020600001805461130590612122565b80601f016020809104026020016040519081016040528092919081815260200182805461133190612122565b801561137e5780601f106113535761010080835404028352916020019161137e565b820191906000526020600020905b81548152906001019060200180831161136157829003601f168201915b50505050509050919050565b611392611434565b600073ffffffffffffffffffffffffffffffffffffffff168173ffffffffffffffffffffffffffffffffffffffff161415611402576040517f08c379a00000000000000000000000000000000000000000000000000000000081526004016113f990611d94565b60405180910390fd5b61140b816114b2565b50565b600160009054906101000a900473ffffffffffffffffffffffffffffffffffffffff1681565b61143c611694565b73ffffffffffffffffffffffffffffffffffffffff1661145a611080565b73ffffffffffffffffffffffffffffffffffffffff16146114b0576040517f08c379a00000000000000000000000000000000000000000000000000000000081526004016114a790611e54565b60405180910390fd5b565b60008060009054906101000a900473ffffffffffffffffffffffffffffffffffffffff169050816000806101000a81548173ffffffffffffffffffffffffffffffffffffffff021916908373ffffffffffffffffffffffffffffffffffffffff1602179055508173ffffffffffffffffffffffffffffffffffffffff168173ffffffffffffffffffffffffffffffffffffffff167f8be0079c531659141344cd1fd0a4f28419497f9722a3daafe3b4186f6b6457e060405160405180910390a35050565b606081601f83611586919061200c565b10156115c7576040517f08c379a00000000000000000000000000000000000000000000000000000000081526004016115be90611df4565b60405180910390fd5b81836115d3919061200c565b84511015611616576040517f08c379a000000000000000000000000000000000000000000000000000000000815260040161160d90611e74565b60405180910390fd5b60608215600081146116375760405191506000825260208201604052611688565b6040519150601f8416801560200281840101858101878315602002848b0101015b818310156116755780518352602083019250602081019050611658565b50868552601f19601f8301166040525050505b50809150509392505050565b600033905090565b604051806060016040528060608152602001600073ffffffffffffffffffffffffffffffffffffffff168152602001600081525090565b8280546116df90612122565b90600052602060002090601f0160209004810192826117015760008555611748565b82601f1061171a57805160ff1916838001178555611748565b82800160010185558215611748579182015b8281111561174757825182559160200191906001019061172c565b5b5090506117559190611759565b5090565b5b8082111561177257600081600090555060010161175a565b5090565b600061178961178484611f7d565b611f58565b9050828152602081018484840111156117a5576117a4612260565b5b6117b08482856120e0565b509392505050565b6000813590506117c7816124d8565b92915050565b6000815190506117dc816124d8565b92915050565b6000815190506117f1816124ef565b92915050565b600082601f83011261180c5761180b61225b565b5b813561181c848260208601611776565b91505092915050565b60008135905061183481612506565b92915050565b60008151905061184981612506565b92915050565b6000602082840312156118655761186461226a565b5b6000611873848285016117b8565b91505092915050565b6000602082840312156118925761189161226a565b5b60006118a0848285016117cd565b91505092915050565b6000602082840312156118bf576118be61226a565b5b60006118cd848285016117e2565b91505092915050565b6000602082840312156118ec576118eb61226a565b5b60006118fa84828501611825565b91505092915050565b6000602082840312156119195761191861226a565b5b60006119278482850161183a565b91505092915050565b6000806000806080858703121561194a5761194961226a565b5b600061195887828801611825565b945050602085013567ffffffffffffffff81111561197957611978612265565b5b611985878288016117f7565b9350506040611996878288016117b8565b92505060606119a787828801611825565b91505092959194509250565b6119bc81612062565b82525050565b6119cb81612062565b82525050565b6119da81612074565b82525050565b60006119eb82611fc3565b6119f58185611fce565b9350611a058185602086016120ef565b611a0e8161226f565b840191505092915050565b6000611a2482611fc3565b611a2e8185611fdf565b9350611a3e8185602086016120ef565b611a478161226f565b840191505092915050565b60008154611a5f81612122565b611a698186611ff0565b94506001821660008114611a845760018114611a9557611ac8565b60ff19831686528186019350611ac8565b611a9e85611fae565b60005b83811015611ac057815481890152600182019150602081019050611aa1565b838801955050505b50505092915050565b611ada816120aa565b82525050565b6000611aed602c83611ffb565b9150611af882612280565b604082019050919050565b6000611b10602683611ffb565b9150611b1b826122cf565b604082019050919050565b6000611b33602683611ffb565b9150611b3e8261231e565b604082019050919050565b6000611b56601683611ffb565b9150611b618261236d565b602082019050919050565b6000611b79600e83611ffb565b9150611b8482612396565b602082019050919050565b6000611b9c602383611ffb565b9150611ba7826123bf565b604082019050919050565b6000611bbf602b83611ffb565b9150611bca8261240e565b604082019050919050565b6000611be2602083611ffb565b9150611bed8261245d565b602082019050919050565b6000611c05601183611ffb565b9150611c1082612486565b602082019050919050565b6000611c28601e83611ffb565b9150611c33826124af565b602082019050919050565b60006060830160008301518482036000860152611c5b82826119e0565b9150506020830151611c7060208601826119b3565b506040830151611c836040860182611c8e565b508091505092915050565b611c97816120a0565b82525050565b611ca6816120a0565b82525050565b6000611cb88284611a52565b915081905092915050565b6000602082019050611cd860008301846119c2565b92915050565b6000602082019050611cf360008301846119d1565b92915050565b60006020820190508181036000830152611d138184611a19565b905092915050565b60006060820190508181036000830152611d358186611a19565b9050611d4460208301856119c2565b611d516040830184611c9d565b949350505050565b6000602082019050611d6e6000830184611ad1565b92915050565b60006020820190508181036000830152611d8d81611ae0565b9050919050565b60006020820190508181036000830152611dad81611b03565b9050919050565b60006020820190508181036000830152611dcd81611b26565b9050919050565b60006020820190508181036000830152611ded81611b49565b9050919050565b60006020820190508181036000830152611e0d81611b6c565b9050919050565b60006020820190508181036000830152611e2d81611b8f565b9050919050565b60006020820190508181036000830152611e4d81611bb2565b9050919050565b60006020820190508181036000830152611e6d81611bd5565b9050919050565b60006020820190508181036000830152611e8d81611bf8565b9050919050565b60006020820190508181036000830152611ead81611c1b565b9050919050565b60006020820190508181036000830152611ece8184611c3e565b905092915050565b60006060820190508181036000830152611ef08186611c3e565b9050611eff6020830185611c9d565b611f0c6040830184611c9d565b949350505050565b6000602082019050611f296000830184611c9d565b92915050565b6000604082019050611f446000830185611c9d565b611f516020830184611c9d565b9392505050565b6000611f62611f73565b9050611f6e8282612154565b919050565b6000604051905090565b600067ffffffffffffffff821115611f9857611f9761222c565b5b611fa18261226f565b9050602081019050919050565b60008190508160005260206000209050919050565b600081519050919050565b600082825260208201905092915050565b600082825260208201905092915050565b600081905092915050565b600082825260208201905092915050565b6000612017826120a0565b9150612022836120a0565b9250827fffffffffffffffffffffffffffffffffffffffffffffffffffffffffffffffff03821115612057576120566121ce565b5b828201905092915050565b600061206d82612080565b9050919050565b60008115159050919050565b600073ffffffffffffffffffffffffffffffffffffffff82169050919050565b6000819050919050565b60006120b5826120bc565b9050919050565b60006120c7826120ce565b9050919050565b60006120d982612080565b9050919050565b82818337600083830152505050565b60005b8381101561210d5780820151818401526020810190506120f2565b8381111561211c576000848401525b50505050565b6000600282049050600182168061213a57607f821691505b6020821081141561214e5761214d6121fd565b5b50919050565b61215d8261226f565b810181811067ffffffffffffffff8211171561217c5761217b61222c565b5b80604052505050565b6000612190826120a0565b91507fffffffffffffffffffffffffffffffffffffffffffffffffffffffffffffffff8214156121c3576121c26121ce565b5b600182019050919050565b7f4e487b7100000000000000000000000000000000000000000000000000000000600052601160045260246000fd5b7f4e487b7100000000000000000000000000000000000000000000000000000000600052602260045260246000fd5b7f4e487b7100000000000000000000000000000000000000000000000000000000600052604160045260246000fd5b600080fd5b600080fd5b600080fd5b600080fd5b6000601f19601f8301169050919050565b7f7075626b657920646f6573206e6f74206d617463682070726576696f7573207260008201527f6567697374726174696f6e730000000000000000000000000000000000000000602082015250565b7f4f776e61626c653a206e6577206f776e657220697320746865207a65726f206160008201527f6464726573730000000000000000000000000000000000000000000000000000602082015250565b7f746f6b656e496420646f6573206e6f74206d6174636820686173686564206b6560008201527f7950617274730000000000000000000000000000000000000000000000000000602082015250565b7f6b65795479706520646f6573206e6f74206d6174636800000000000000000000600082015250565b7f736c6963655f6f766572666c6f77000000000000000000000000000000000000600082015250565b7f596f75206861766520616c726561647920766f74656420666f7220746869732060008201527f6b65790000000000000000000000000000000000000000000000000000000000602082015250565b7f4f6e6c79206163746976652076616c696461746f72732063616e20736574207260008201527f6f7574696e672064617461000000000000000000000000000000000000000000602082015250565b7f4f776e61626c653a2063616c6c6572206973206e6f7420746865206f776e6572600082015250565b7f736c6963655f6f75744f66426f756e6473000000000000000000000000000000600082015250565b7f7374616b696e67436f6e747261637420646f6573206e6f74206d617463680000600082015250565b6124e181612062565b81146124ec57600080fd5b50565b6124f881612074565b811461250357600080fd5b50565b61250f816120a0565b811461251a57600080fd5b5056fea26469706673582212204231a833690ecd90cd436ecf50d3795adab75993c9b0bb02b896ea5ea183740764736f6c63430008070033",
  "linkReferences": {},
  "deployedLinkReferences": {}
}